{
  "_format": "hh-sol-artifact-1",
  "contractName": "BlergsWeb",
  "sourceName": "contracts/Blergs-web.sol",
  "abi": [
    {
      "inputs": [],
      "stateMutability": "nonpayable",
      "type": "constructor"
    },
    {
      "anonymous": false,
      "inputs": [
        {
          "indexed": true,
          "internalType": "address",
          "name": "owner",
          "type": "address"
        },
        {
          "indexed": true,
          "internalType": "address",
          "name": "approved",
          "type": "address"
        },
        {
          "indexed": true,
          "internalType": "uint256",
          "name": "tokenId",
          "type": "uint256"
        }
      ],
      "name": "Approval",
      "type": "event"
    },
    {
      "anonymous": false,
      "inputs": [
        {
          "indexed": true,
          "internalType": "address",
          "name": "owner",
          "type": "address"
        },
        {
          "indexed": true,
          "internalType": "address",
          "name": "operator",
          "type": "address"
        },
        {
          "indexed": false,
          "internalType": "bool",
          "name": "approved",
          "type": "bool"
        }
      ],
      "name": "ApprovalForAll",
      "type": "event"
    },
    {
      "anonymous": false,
      "inputs": [
        {
          "indexed": true,
          "internalType": "address",
          "name": "from",
          "type": "address"
        },
        {
          "indexed": true,
          "internalType": "address",
          "name": "to",
          "type": "address"
        },
        {
          "indexed": true,
          "internalType": "uint256",
          "name": "tokenId",
          "type": "uint256"
        }
      ],
      "name": "Transfer",
      "type": "event"
    },
    {
      "inputs": [
        {
          "internalType": "address",
          "name": "to",
          "type": "address"
        },
        {
          "internalType": "uint256",
          "name": "tokenId",
          "type": "uint256"
        }
      ],
      "name": "approve",
      "outputs": [],
      "stateMutability": "nonpayable",
      "type": "function"
    },
    {
      "inputs": [
        {
          "internalType": "address",
          "name": "owner",
          "type": "address"
        }
      ],
      "name": "balanceOf",
      "outputs": [
        {
          "internalType": "uint256",
          "name": "",
          "type": "uint256"
        }
      ],
      "stateMutability": "view",
      "type": "function"
    },
    {
      "inputs": [
        {
          "internalType": "uint256",
          "name": "tokenId",
          "type": "uint256"
        }
      ],
      "name": "getApproved",
      "outputs": [
        {
          "internalType": "address",
          "name": "",
          "type": "address"
        }
      ],
      "stateMutability": "view",
      "type": "function"
    },
    {
      "inputs": [
        {
          "internalType": "address",
          "name": "owner",
          "type": "address"
        },
        {
          "internalType": "address",
          "name": "operator",
          "type": "address"
        }
      ],
      "name": "isApprovedForAll",
      "outputs": [
        {
          "internalType": "bool",
          "name": "",
          "type": "bool"
        }
      ],
      "stateMutability": "view",
      "type": "function"
    },
    {
      "inputs": [],
      "name": "mintBlank",
      "outputs": [],
      "stateMutability": "nonpayable",
      "type": "function"
    },
    {
      "inputs": [],
      "name": "name",
      "outputs": [
        {
          "internalType": "string",
          "name": "",
          "type": "string"
        }
      ],
      "stateMutability": "view",
      "type": "function"
    },
    {
      "inputs": [
        {
          "internalType": "uint256",
          "name": "tokenId",
          "type": "uint256"
        }
      ],
      "name": "ownerOf",
      "outputs": [
        {
          "internalType": "address",
          "name": "",
          "type": "address"
        }
      ],
      "stateMutability": "view",
      "type": "function"
    },
    {
      "inputs": [
        {
          "internalType": "address",
          "name": "from",
          "type": "address"
        },
        {
          "internalType": "address",
          "name": "to",
          "type": "address"
        },
        {
          "internalType": "uint256",
          "name": "tokenId",
          "type": "uint256"
        }
      ],
      "name": "safeTransferFrom",
      "outputs": [],
      "stateMutability": "nonpayable",
      "type": "function"
    },
    {
      "inputs": [
        {
          "internalType": "address",
          "name": "from",
          "type": "address"
        },
        {
          "internalType": "address",
          "name": "to",
          "type": "address"
        },
        {
          "internalType": "uint256",
          "name": "tokenId",
          "type": "uint256"
        },
        {
          "internalType": "bytes",
          "name": "data",
          "type": "bytes"
        }
      ],
      "name": "safeTransferFrom",
      "outputs": [],
      "stateMutability": "nonpayable",
      "type": "function"
    },
    {
      "inputs": [
        {
          "internalType": "address",
          "name": "operator",
          "type": "address"
        },
        {
          "internalType": "bool",
          "name": "approved",
          "type": "bool"
        }
      ],
      "name": "setApprovalForAll",
      "outputs": [],
      "stateMutability": "nonpayable",
      "type": "function"
    },
    {
      "inputs": [
        {
          "internalType": "bytes4",
          "name": "interfaceId",
          "type": "bytes4"
        }
      ],
      "name": "supportsInterface",
      "outputs": [
        {
          "internalType": "bool",
          "name": "",
          "type": "bool"
        }
      ],
      "stateMutability": "view",
      "type": "function"
    },
    {
      "inputs": [],
      "name": "symbol",
      "outputs": [
        {
          "internalType": "string",
          "name": "",
          "type": "string"
        }
      ],
      "stateMutability": "view",
      "type": "function"
    },
    {
      "inputs": [
        {
          "internalType": "uint256",
          "name": "index",
          "type": "uint256"
        }
      ],
      "name": "tokenByIndex",
      "outputs": [
        {
          "internalType": "uint256",
          "name": "",
          "type": "uint256"
        }
      ],
      "stateMutability": "view",
      "type": "function"
    },
    {
      "inputs": [
        {
          "internalType": "address",
          "name": "owner",
          "type": "address"
        },
        {
          "internalType": "uint256",
          "name": "index",
          "type": "uint256"
        }
      ],
      "name": "tokenOfOwnerByIndex",
      "outputs": [
        {
          "internalType": "uint256",
          "name": "",
          "type": "uint256"
        }
      ],
      "stateMutability": "view",
      "type": "function"
    },
    {
      "inputs": [
        {
          "internalType": "uint256",
          "name": "tokenId",
          "type": "uint256"
        }
      ],
      "name": "tokenURI",
      "outputs": [
        {
          "internalType": "string",
          "name": "",
          "type": "string"
        }
      ],
      "stateMutability": "view",
      "type": "function"
    },
    {
      "inputs": [],
      "name": "totalSupply",
      "outputs": [
        {
          "internalType": "uint256",
          "name": "",
          "type": "uint256"
        }
      ],
      "stateMutability": "view",
      "type": "function"
    },
    {
      "inputs": [
        {
          "internalType": "address",
          "name": "from",
          "type": "address"
        },
        {
          "internalType": "address",
          "name": "to",
          "type": "address"
        },
        {
          "internalType": "uint256",
          "name": "tokenId",
          "type": "uint256"
        }
      ],
      "name": "transferFrom",
      "outputs": [],
      "stateMutability": "nonpayable",
      "type": "function"
    }
  ],
  "bytecode": "0x60806040523480156200001157600080fd5b5060405180604001604052806003815260200162426c2d60e81b81525060405180604001604052806003815260200162212b1960e91b81525081600090816200005b919062000118565b5060016200006a828262000118565b505050620001e4565b634e487b7160e01b600052604160045260246000fd5b600181811c908216806200009e57607f821691505b602082108103620000bf57634e487b7160e01b600052602260045260246000fd5b50919050565b601f8211156200011357600081815260208120601f850160051c81016020861015620000ee5750805b601f850160051c820191505b818110156200010f57828155600101620000fa565b5050505b505050565b81516001600160401b0381111562000134576200013462000073565b6200014c8162000145845462000089565b84620000c5565b602080601f8311600181146200018457600084156200016b5750858301515b600019600386901b1c1916600185901b1785556200010f565b600085815260208120601f198616915b82811015620001b55788860151825594840194600190910190840162000194565b5085821015620001d45787850151600019600388901b60f8161c191681555b5050505050600190811b01905550565b6119ab80620001f46000396000f3fe608060405234801561001057600080fd5b506004361061011b5760003560e01c806342842e0e116100b257806395d89b4111610081578063b88d4fde11610066578063b88d4fde14610244578063c87b56dd14610257578063e985e9c51461026a57600080fd5b806395d89b4114610229578063a22cb4651461023157600080fd5b806342842e0e146101dd5780634f6ccce7146101f05780636352211e1461020357806370a082311461021657600080fd5b806318160ddd116100ee57806318160ddd1461019d578063181613a9146101af57806323b872dd146101b75780632f745c59146101ca57600080fd5b806301ffc9a71461012057806306fdde0314610148578063081812fc1461015d578063095ea7b314610188575b600080fd5b61013361012e366004611533565b6102a6565b60405190151581526020015b60405180910390f35b6101506102b7565b60405161013f91906115a0565b61017061016b3660046115b3565b610349565b6040516001600160a01b03909116815260200161013f565b61019b6101963660046115e8565b610370565b005b6008545b60405190815260200161013f565b61019b6104a6565b61019b6101c5366004611612565b6104ce565b6101a16101d83660046115e8565b610555565b61019b6101eb366004611612565b6105fd565b6101a16101fe3660046115b3565b610618565b6101706102113660046115b3565b6106bc565b6101a161022436600461164e565b610721565b6101506107bb565b61019b61023f366004611669565b6107ca565b61019b6102523660046116bb565b6107d9565b6101506102653660046115b3565b610867565b610133610278366004611797565b6001600160a01b03918216600090815260056020908152604080832093909416825291909152205460ff1690565b60006102b1826108ce565b92915050565b6060600080546102c6906117ca565b80601f01602080910402602001604051908101604052809291908181526020018280546102f2906117ca565b801561033f5780601f106103145761010080835404028352916020019161033f565b820191906000526020600020905b81548152906001019060200180831161032257829003601f168201915b5050505050905090565b60006103548261090c565b506000908152600460205260409020546001600160a01b031690565b600061037b826106bc565b9050806001600160a01b0316836001600160a01b0316036104095760405162461bcd60e51b815260206004820152602160248201527f4552433732313a20617070726f76616c20746f2063757272656e74206f776e6560448201527f720000000000000000000000000000000000000000000000000000000000000060648201526084015b60405180910390fd5b336001600160a01b038216148061042557506104258133610278565b6104975760405162461bcd60e51b815260206004820152603e60248201527f4552433732313a20617070726f76652063616c6c6572206973206e6f7420746f60448201527f6b656e206f776e6572206e6f7220617070726f76656420666f7220616c6c00006064820152608401610400565b6104a18383610970565b505050565b60006104b1600a5490565b90506104bd33826109eb565b6104cb600a80546001019055565b50565b6104d83382610a05565b61054a5760405162461bcd60e51b815260206004820152602e60248201527f4552433732313a2063616c6c6572206973206e6f7420746f6b656e206f776e6560448201527f72206e6f7220617070726f7665640000000000000000000000000000000000006064820152608401610400565b6104a1838383610a84565b600061056083610721565b82106105d45760405162461bcd60e51b815260206004820152602b60248201527f455243373231456e756d657261626c653a206f776e657220696e646578206f7560448201527f74206f6620626f756e64730000000000000000000000000000000000000000006064820152608401610400565b506001600160a01b03919091166000908152600660209081526040808320938352929052205490565b6104a1838383604051806020016040528060008152506107d9565b600061062360085490565b82106106975760405162461bcd60e51b815260206004820152602c60248201527f455243373231456e756d657261626c653a20676c6f62616c20696e646578206f60448201527f7574206f6620626f756e647300000000000000000000000000000000000000006064820152608401610400565b600882815481106106aa576106aa611804565b90600052602060002001549050919050565b6000818152600260205260408120546001600160a01b0316806102b15760405162461bcd60e51b815260206004820152601860248201527f4552433732313a20696e76616c696420746f6b656e20494400000000000000006044820152606401610400565b60006001600160a01b03821661079f5760405162461bcd60e51b815260206004820152602960248201527f4552433732313a2061646472657373207a65726f206973206e6f74206120766160448201527f6c6964206f776e657200000000000000000000000000000000000000000000006064820152608401610400565b506001600160a01b031660009081526003602052604090205490565b6060600180546102c6906117ca565b6107d5338383610c69565b5050565b6107e33383610a05565b6108555760405162461bcd60e51b815260206004820152602e60248201527f4552433732313a2063616c6c6572206973206e6f7420746f6b656e206f776e6560448201527f72206e6f7220617070726f7665640000000000000000000000000000000000006064820152608401610400565b61086184848484610d37565b50505050565b60606108728261090c565b600061087c610db5565b9050600081511161089c57604051806020016040528060008152506108c7565b806108a684610dd5565b6040516020016108b792919061181a565b6040516020818303038152906040525b9392505050565b60006001600160e01b031982167f780e9d630000000000000000000000000000000000000000000000000000000014806102b157506102b182610f0a565b6000818152600260205260409020546001600160a01b03166104cb5760405162461bcd60e51b815260206004820152601860248201527f4552433732313a20696e76616c696420746f6b656e20494400000000000000006044820152606401610400565b6000818152600460205260409020805473ffffffffffffffffffffffffffffffffffffffff19166001600160a01b03841690811790915581906109b2826106bc565b6001600160a01b03167f8c5be1e5ebec7d5bd14f71427d1e84f3dd0314c0f7b2291e5b200ac8c7c3b92560405160405180910390a45050565b6107d5828260405180602001604052806000815250610fa5565b600080610a11836106bc565b9050806001600160a01b0316846001600160a01b03161480610a5857506001600160a01b0380821660009081526005602090815260408083209388168352929052205460ff165b80610a7c5750836001600160a01b0316610a7184610349565b6001600160a01b0316145b949350505050565b826001600160a01b0316610a97826106bc565b6001600160a01b031614610b135760405162461bcd60e51b815260206004820152602560248201527f4552433732313a207472616e736665722066726f6d20696e636f72726563742060448201527f6f776e65720000000000000000000000000000000000000000000000000000006064820152608401610400565b6001600160a01b038216610b8e5760405162461bcd60e51b8152602060048201526024808201527f4552433732313a207472616e7366657220746f20746865207a65726f2061646460448201527f72657373000000000000000000000000000000000000000000000000000000006064820152608401610400565b610b99838383611023565b610ba4600082610970565b6001600160a01b0383166000908152600360205260408120805460019290610bcd90849061185f565b90915550506001600160a01b0382166000908152600360205260408120805460019290610bfb908490611872565b9091555050600081815260026020526040808220805473ffffffffffffffffffffffffffffffffffffffff19166001600160a01b0386811691821790925591518493918716917fddf252ad1be2c89b69c2b068fc378daa952ba7f163c4a11628f55a4df523b3ef91a4505050565b816001600160a01b0316836001600160a01b031603610cca5760405162461bcd60e51b815260206004820152601960248201527f4552433732313a20617070726f766520746f2063616c6c6572000000000000006044820152606401610400565b6001600160a01b03838116600081815260056020908152604080832094871680845294825291829020805460ff191686151590811790915591519182527f17307eab39ab6107e8899845ad3d59bd9653f200f220920489ca2b5937696c31910160405180910390a3505050565b610d42848484610a84565b610d4e8484848461102e565b6108615760405162461bcd60e51b815260206004820152603260248201527f4552433732313a207472616e7366657220746f206e6f6e20455243373231526560448201527131b2b4bb32b91034b6b83632b6b2b73a32b960711b6064820152608401610400565b60606040518060600160405280602a815260200161194c602a9139905090565b606081600003610e1857505060408051808201909152600181527f3000000000000000000000000000000000000000000000000000000000000000602082015290565b8160005b8115610e425780610e2c81611885565b9150610e3b9050600a836118b4565b9150610e1c565b60008167ffffffffffffffff811115610e5d57610e5d6116a5565b6040519080825280601f01601f191660200182016040528015610e87576020820181803683370190505b5090505b8415610a7c57610e9c60018361185f565b9150610ea9600a866118c8565b610eb4906030611872565b60f81b818381518110610ec957610ec9611804565b60200101907effffffffffffffffffffffffffffffffffffffffffffffffffffffffffffff1916908160001a905350610f03600a866118b4565b9450610e8b565b60006001600160e01b031982167f80ac58cd000000000000000000000000000000000000000000000000000000001480610f6d57506001600160e01b031982167f5b5e139f00000000000000000000000000000000000000000000000000000000145b806102b157507f01ffc9a7000000000000000000000000000000000000000000000000000000006001600160e01b03198316146102b1565b610faf838361117a565b610fbc600084848461102e565b6104a15760405162461bcd60e51b815260206004820152603260248201527f4552433732313a207472616e7366657220746f206e6f6e20455243373231526560448201527131b2b4bb32b91034b6b83632b6b2b73a32b960711b6064820152608401610400565b6104a18383836112d5565b60006001600160a01b0384163b1561116f57604051630a85bd0160e11b81526001600160a01b0385169063150b7a02906110729033908990889088906004016118dc565b6020604051808303816000875af19250505080156110ad575060408051601f3d908101601f191682019092526110aa91810190611918565b60015b611155573d8080156110db576040519150601f19603f3d011682016040523d82523d6000602084013e6110e0565b606091505b50805160000361114d5760405162461bcd60e51b815260206004820152603260248201527f4552433732313a207472616e7366657220746f206e6f6e20455243373231526560448201527131b2b4bb32b91034b6b83632b6b2b73a32b960711b6064820152608401610400565b805181602001fd5b6001600160e01b031916630a85bd0160e11b149050610a7c565b506001949350505050565b6001600160a01b0382166111d05760405162461bcd60e51b815260206004820181905260248201527f4552433732313a206d696e7420746f20746865207a65726f20616464726573736044820152606401610400565b6000818152600260205260409020546001600160a01b0316156112355760405162461bcd60e51b815260206004820152601c60248201527f4552433732313a20746f6b656e20616c7265616479206d696e746564000000006044820152606401610400565b61124160008383611023565b6001600160a01b038216600090815260036020526040812080546001929061126a908490611872565b9091555050600081815260026020526040808220805473ffffffffffffffffffffffffffffffffffffffff19166001600160a01b03861690811790915590518392907fddf252ad1be2c89b69c2b068fc378daa952ba7f163c4a11628f55a4df523b3ef908290a45050565b6001600160a01b0383166113305761132b81600880546000838152600960205260408120829055600182018355919091527ff3f7a9fe364faab93b216da50a3214154f22a0a2b415b23a84c8169e8b636ee30155565b611353565b816001600160a01b0316836001600160a01b03161461135357611353838261138d565b6001600160a01b03821661136a576104a18161142a565b826001600160a01b0316826001600160a01b0316146104a1576104a182826114d9565b6000600161139a84610721565b6113a4919061185f565b6000838152600760205260409020549091508082146113f7576001600160a01b03841660009081526006602090815260408083208584528252808320548484528184208190558352600790915290208190555b5060009182526007602090815260408084208490556001600160a01b039094168352600681528383209183525290812055565b60085460009061143c9060019061185f565b6000838152600960205260408120546008805493945090928490811061146457611464611804565b90600052602060002001549050806008838154811061148557611485611804565b60009182526020808320909101929092558281526009909152604080822084905585825281205560088054806114bd576114bd611935565b6001900381819060005260206000200160009055905550505050565b60006114e483610721565b6001600160a01b039093166000908152600660209081526040808320868452825280832085905593825260079052919091209190915550565b6001600160e01b0319811681146104cb57600080fd5b60006020828403121561154557600080fd5b81356108c78161151d565b60005b8381101561156b578181015183820152602001611553565b50506000910152565b6000815180845261158c816020860160208601611550565b601f01601f19169290920160200192915050565b6020815260006108c76020830184611574565b6000602082840312156115c557600080fd5b5035919050565b80356001600160a01b03811681146115e357600080fd5b919050565b600080604083850312156115fb57600080fd5b611604836115cc565b946020939093013593505050565b60008060006060848603121561162757600080fd5b611630846115cc565b925061163e602085016115cc565b9150604084013590509250925092565b60006020828403121561166057600080fd5b6108c7826115cc565b6000806040838503121561167c57600080fd5b611685836115cc565b91506020830135801515811461169a57600080fd5b809150509250929050565b634e487b7160e01b600052604160045260246000fd5b600080600080608085870312156116d157600080fd5b6116da856115cc565b93506116e8602086016115cc565b925060408501359150606085013567ffffffffffffffff8082111561170c57600080fd5b818701915087601f83011261172057600080fd5b813581811115611732576117326116a5565b604051601f8201601f19908116603f0116810190838211818310171561175a5761175a6116a5565b816040528281528a602084870101111561177357600080fd5b82602086016020830137600060208483010152809550505050505092959194509250565b600080604083850312156117aa57600080fd5b6117b3836115cc565b91506117c1602084016115cc565b90509250929050565b600181811c908216806117de57607f821691505b6020821081036117fe57634e487b7160e01b600052602260045260246000fd5b50919050565b634e487b7160e01b600052603260045260246000fd5b6000835161182c818460208801611550565b835190830190611840818360208801611550565b01949350505050565b634e487b7160e01b600052601160045260246000fd5b818103818111156102b1576102b1611849565b808201808211156102b1576102b1611849565b60006001820161189757611897611849565b5060010190565b634e487b7160e01b600052601260045260246000fd5b6000826118c3576118c361189e565b500490565b6000826118d7576118d761189e565b500690565b60006001600160a01b0380871683528086166020840152508360408301526080606083015261190e6080830184611574565b9695505050505050565b60006020828403121561192a57600080fd5b81516108c78161151d565b634e487b7160e01b600052603160045260246000fdfe68747470733a2f2f626c6572672d76322d6d76702e76657263656c2e6170702f6170692f626c6572672fa264697066735822122047ef11a40aed7c205794ca7aa20f3a8baf650678c76e1f32981b55063e9fb4f064736f6c63430008110033",
  "linkReferences": {},
  "deployedLinkReferences": {}
}