{
  "_format": "hh-sol-artifact-1",
  "contractName": "BlergsStaking",
  "sourceName": "contracts/Blergs-staking.sol",
  "abi": [
    {
      "inputs": [],
      "stateMutability": "nonpayable",
      "type": "constructor"
    },
    {
      "anonymous": false,
      "inputs": [
        {
          "indexed": true,
          "internalType": "address",
          "name": "owner",
          "type": "address"
        },
        {
          "indexed": true,
          "internalType": "address",
          "name": "approved",
          "type": "address"
        },
        {
          "indexed": true,
          "internalType": "uint256",
          "name": "tokenId",
          "type": "uint256"
        }
      ],
      "name": "Approval",
      "type": "event"
    },
    {
      "anonymous": false,
      "inputs": [
        {
          "indexed": true,
          "internalType": "address",
          "name": "owner",
          "type": "address"
        },
        {
          "indexed": true,
          "internalType": "address",
          "name": "operator",
          "type": "address"
        },
        {
          "indexed": false,
          "internalType": "bool",
          "name": "approved",
          "type": "bool"
        }
      ],
      "name": "ApprovalForAll",
      "type": "event"
    },
    {
      "anonymous": false,
      "inputs": [
        {
          "indexed": true,
          "internalType": "address",
          "name": "from",
          "type": "address"
        },
        {
          "indexed": true,
          "internalType": "address",
          "name": "to",
          "type": "address"
        },
        {
          "indexed": true,
          "internalType": "uint256",
          "name": "tokenId",
          "type": "uint256"
        }
      ],
      "name": "Transfer",
      "type": "event"
    },
    {
      "inputs": [
        {
          "internalType": "address",
          "name": "to",
          "type": "address"
        },
        {
          "internalType": "uint256",
          "name": "tokenId",
          "type": "uint256"
        }
      ],
      "name": "approve",
      "outputs": [],
      "stateMutability": "nonpayable",
      "type": "function"
    },
    {
      "inputs": [
        {
          "internalType": "uint256",
          "name": "",
          "type": "uint256"
        }
      ],
      "name": "artworkRef",
      "outputs": [
        {
          "internalType": "string",
          "name": "",
          "type": "string"
        }
      ],
      "stateMutability": "view",
      "type": "function"
    },
    {
      "inputs": [
        {
          "internalType": "address",
          "name": "owner",
          "type": "address"
        }
      ],
      "name": "balanceOf",
      "outputs": [
        {
          "internalType": "uint256",
          "name": "",
          "type": "uint256"
        }
      ],
      "stateMutability": "view",
      "type": "function"
    },
    {
      "inputs": [],
      "name": "blankBlergRef",
      "outputs": [
        {
          "internalType": "string",
          "name": "",
          "type": "string"
        }
      ],
      "stateMutability": "view",
      "type": "function"
    },
    {
      "inputs": [
        {
          "internalType": "uint256",
          "name": "",
          "type": "uint256"
        },
        {
          "internalType": "uint256",
          "name": "",
          "type": "uint256"
        }
      ],
      "name": "blergTraits",
      "outputs": [
        {
          "internalType": "uint256",
          "name": "",
          "type": "uint256"
        }
      ],
      "stateMutability": "view",
      "type": "function"
    },
    {
      "inputs": [
        {
          "internalType": "uint256",
          "name": "tokenId",
          "type": "uint256"
        }
      ],
      "name": "getApproved",
      "outputs": [
        {
          "internalType": "address",
          "name": "",
          "type": "address"
        }
      ],
      "stateMutability": "view",
      "type": "function"
    },
    {
      "inputs": [
        {
          "internalType": "address",
          "name": "owner",
          "type": "address"
        },
        {
          "internalType": "address",
          "name": "operator",
          "type": "address"
        }
      ],
      "name": "isApprovedForAll",
      "outputs": [
        {
          "internalType": "bool",
          "name": "",
          "type": "bool"
        }
      ],
      "stateMutability": "view",
      "type": "function"
    },
    {
      "inputs": [
        {
          "internalType": "uint256[5]",
          "name": "traits",
          "type": "uint256[5]"
        }
      ],
      "name": "mintWithTraits",
      "outputs": [],
      "stateMutability": "nonpayable",
      "type": "function"
    },
    {
      "inputs": [],
      "name": "name",
      "outputs": [
        {
          "internalType": "string",
          "name": "",
          "type": "string"
        }
      ],
      "stateMutability": "view",
      "type": "function"
    },
    {
      "inputs": [
        {
          "internalType": "uint256",
          "name": "tokenId",
          "type": "uint256"
        }
      ],
      "name": "ownerOf",
      "outputs": [
        {
          "internalType": "address",
          "name": "",
          "type": "address"
        }
      ],
      "stateMutability": "view",
      "type": "function"
    },
    {
      "inputs": [
        {
          "internalType": "address",
          "name": "from",
          "type": "address"
        },
        {
          "internalType": "address",
          "name": "to",
          "type": "address"
        },
        {
          "internalType": "uint256",
          "name": "tokenId",
          "type": "uint256"
        }
      ],
      "name": "safeTransferFrom",
      "outputs": [],
      "stateMutability": "nonpayable",
      "type": "function"
    },
    {
      "inputs": [
        {
          "internalType": "address",
          "name": "from",
          "type": "address"
        },
        {
          "internalType": "address",
          "name": "to",
          "type": "address"
        },
        {
          "internalType": "uint256",
          "name": "tokenId",
          "type": "uint256"
        },
        {
          "internalType": "bytes",
          "name": "data",
          "type": "bytes"
        }
      ],
      "name": "safeTransferFrom",
      "outputs": [],
      "stateMutability": "nonpayable",
      "type": "function"
    },
    {
      "inputs": [
        {
          "internalType": "address",
          "name": "operator",
          "type": "address"
        },
        {
          "internalType": "bool",
          "name": "approved",
          "type": "bool"
        }
      ],
      "name": "setApprovalForAll",
      "outputs": [],
      "stateMutability": "nonpayable",
      "type": "function"
    },
    {
      "inputs": [
        {
          "internalType": "uint256",
          "name": "tokenId",
          "type": "uint256"
        },
        {
          "internalType": "uint256[5]",
          "name": "traits",
          "type": "uint256[5]"
        }
      ],
      "name": "setTraits",
      "outputs": [],
      "stateMutability": "nonpayable",
      "type": "function"
    },
    {
      "inputs": [
        {
          "internalType": "address",
          "name": "traitsAddress",
          "type": "address"
        }
      ],
      "name": "setTraitsAddress",
      "outputs": [],
      "stateMutability": "nonpayable",
      "type": "function"
    },
    {
      "inputs": [
        {
          "internalType": "bytes4",
          "name": "interfaceId",
          "type": "bytes4"
        }
      ],
      "name": "supportsInterface",
      "outputs": [
        {
          "internalType": "bool",
          "name": "",
          "type": "bool"
        }
      ],
      "stateMutability": "view",
      "type": "function"
    },
    {
      "inputs": [],
      "name": "symbol",
      "outputs": [
        {
          "internalType": "string",
          "name": "",
          "type": "string"
        }
      ],
      "stateMutability": "view",
      "type": "function"
    },
    {
      "inputs": [
        {
          "internalType": "uint256",
          "name": "index",
          "type": "uint256"
        }
      ],
      "name": "tokenByIndex",
      "outputs": [
        {
          "internalType": "uint256",
          "name": "",
          "type": "uint256"
        }
      ],
      "stateMutability": "view",
      "type": "function"
    },
    {
      "inputs": [
        {
          "internalType": "address",
          "name": "owner",
          "type": "address"
        },
        {
          "internalType": "uint256",
          "name": "index",
          "type": "uint256"
        }
      ],
      "name": "tokenOfOwnerByIndex",
      "outputs": [
        {
          "internalType": "uint256",
          "name": "",
          "type": "uint256"
        }
      ],
      "stateMutability": "view",
      "type": "function"
    },
    {
      "inputs": [
        {
          "internalType": "uint256",
          "name": "tokenId",
          "type": "uint256"
        }
      ],
      "name": "tokenURI",
      "outputs": [
        {
          "internalType": "string",
          "name": "",
          "type": "string"
        }
      ],
      "stateMutability": "view",
      "type": "function"
    },
    {
      "inputs": [],
      "name": "totalSupply",
      "outputs": [
        {
          "internalType": "uint256",
          "name": "",
          "type": "uint256"
        }
      ],
      "stateMutability": "view",
      "type": "function"
    },
    {
      "inputs": [
        {
          "internalType": "address",
          "name": "from",
          "type": "address"
        },
        {
          "internalType": "address",
          "name": "to",
          "type": "address"
        },
        {
          "internalType": "uint256",
          "name": "tokenId",
          "type": "uint256"
        }
      ],
      "name": "transferFrom",
      "outputs": [],
      "stateMutability": "nonpayable",
      "type": "function"
    }
  ],
  "bytecode": "0x60c060405260046080908152630303030360e41b60a052600b906200002590826200013a565b503480156200003357600080fd5b5060405180604001604052806003815260200162426c2d60e81b81525060405180604001604052806003815260200162212b1960e91b81525081600090816200007d91906200013a565b5060016200008c82826200013a565b50505062000206565b634e487b7160e01b600052604160045260246000fd5b600181811c90821680620000c057607f821691505b602082108103620000e157634e487b7160e01b600052602260045260246000fd5b50919050565b601f8211156200013557600081815260208120601f850160051c81016020861015620001105750805b601f850160051c820191505b8181101562000131578281556001016200011c565b5050505b505050565b81516001600160401b0381111562000156576200015662000095565b6200016e81620001678454620000ab565b84620000e7565b602080601f831160018114620001a657600084156200018d5750858301515b600019600386901b1c1916600185901b17855562000131565b600085815260208120601f198616915b82811015620001d757888601518255948401946001909101908401620001b6565b5085821015620001f65787850151600019600388901b60f8161c191681555b5050505050600190811b01905550565b6121d780620002166000396000f3fe608060405234801561001057600080fd5b50600436106101825760003560e01c80636352211e116100d85780638affb4851161008c578063b88d4fde11610066578063b88d4fde14610334578063c87b56dd14610347578063e985e9c51461035a57600080fd5b80638affb485146102dc57806395d89b4114610319578063a22cb4651461032157600080fd5b806370a08231116100bd57806370a08231146102a357806371150bce146102b65780637e577687146102c957600080fd5b80636352211e1461027d5780636ffcf4cd1461029057600080fd5b806323b872dd1161013a5780633852d7de116101145780633852d7de1461024457806342842e0e146102575780634f6ccce71461026a57600080fd5b806323b872dd146102165780632f745c59146102295780633354c8631461023c57600080fd5b8063081812fc1161016b578063081812fc146101c4578063095ea7b3146101ef57806318160ddd1461020457600080fd5b806301ffc9a71461018757806306fdde03146101af575b600080fd5b61019a610195366004611af6565b610396565b60405190151581526020015b60405180910390f35b6101b76103a7565b6040516101a69190611b6a565b6101d76101d2366004611b7d565b610439565b6040516001600160a01b0390911681526020016101a6565b6102026101fd366004611bb2565b610460565b005b6008545b6040519081526020016101a6565b610202610224366004611bdc565b610596565b610208610237366004611bb2565b61061d565b6101b76106c5565b610202610252366004611c29565b610753565b610202610265366004611bdc565b610786565b610208610278366004611b7d565b6107a1565b6101d761028b366004611b7d565b610845565b61020861029e366004611c45565b6108aa565b6102086102b1366004611c67565b6108db565b6101b76102c4366004611b7d565b610975565b6102026102d7366004611c82565b61098e565b6102026102ea366004611c67565b600c805473ffffffffffffffffffffffffffffffffffffffff19166001600160a01b0392909216919091179055565b6101b7610b09565b61020261032f366004611cbd565b610b18565b610202610342366004611d0a565b610b23565b6101b7610355366004611b7d565b610bb1565b61019a610368366004611de6565b6001600160a01b03918216600090815260056020908152604080832093909416825291909152205460ff1690565b60006103a182610e34565b92915050565b6060600080546103b690611e10565b80601f01602080910402602001604051908101604052809291908181526020018280546103e290611e10565b801561042f5780601f106104045761010080835404028352916020019161042f565b820191906000526020600020905b81548152906001019060200180831161041257829003601f168201915b5050505050905090565b600061044482610e72565b506000908152600460205260409020546001600160a01b031690565b600061046b82610845565b9050806001600160a01b0316836001600160a01b0316036104f95760405162461bcd60e51b815260206004820152602160248201527f4552433732313a20617070726f76616c20746f2063757272656e74206f776e6560448201527f720000000000000000000000000000000000000000000000000000000000000060648201526084015b60405180910390fd5b336001600160a01b038216148061051557506105158133610368565b6105875760405162461bcd60e51b815260206004820152603e60248201527f4552433732313a20617070726f76652063616c6c6572206973206e6f7420746f60448201527f6b656e206f776e6572206e6f7220617070726f76656420666f7220616c6c000060648201526084016104f0565b6105918383610ed9565b505050565b6105a03382610f54565b6106125760405162461bcd60e51b815260206004820152602e60248201527f4552433732313a2063616c6c6572206973206e6f7420746f6b656e206f776e6560448201527f72206e6f7220617070726f76656400000000000000000000000000000000000060648201526084016104f0565b610591838383610fd3565b6000610628836108db565b821061069c5760405162461bcd60e51b815260206004820152602b60248201527f455243373231456e756d657261626c653a206f776e657220696e646578206f7560448201527f74206f6620626f756e647300000000000000000000000000000000000000000060648201526084016104f0565b506001600160a01b03919091166000908152600660209081526040808320938352929052205490565b600b80546106d290611e10565b80601f01602080910402602001604051908101604052809291908181526020018280546106fe90611e10565b801561074b5780601f106107205761010080835404028352916020019161074b565b820191906000526020600020905b81548152906001019060200180831161072e57829003601f168201915b505050505081565b600061075e600a5490565b905061076a33826111b8565b610774818361098e565b610782600a80546001019055565b5050565b61059183838360405180602001604052806000815250610b23565b60006107ac60085490565b82106108205760405162461bcd60e51b815260206004820152602c60248201527f455243373231456e756d657261626c653a20676c6f62616c20696e646578206f60448201527f7574206f6620626f756e6473000000000000000000000000000000000000000060648201526084016104f0565b6008828154811061083357610833611e4a565b90600052602060002001549050919050565b6000818152600260205260408120546001600160a01b0316806103a15760405162461bcd60e51b815260206004820152601860248201527f4552433732313a20696e76616c696420746f6b656e204944000000000000000060448201526064016104f0565b600e60205281600052604060002081815481106108c657600080fd5b90600052602060002001600091509150505481565b60006001600160a01b0382166109595760405162461bcd60e51b815260206004820152602960248201527f4552433732313a2061646472657373207a65726f206973206e6f74206120766160448201527f6c6964206f776e6572000000000000000000000000000000000000000000000060648201526084016104f0565b506001600160a01b031660009081526003602052604090205490565b600d60205260009081526040902080546106d290611e10565b3361099883610845565b6001600160a01b0316146109ee5760405162461bcd60e51b815260206004820152601260248201527f4d757374204f776e2054686520426c657267000000000000000000000000000060448201526064016104f0565b60005b6005811015610aee57600c546001600160a01b0316638f16981633848460058110610a1e57610a1e611e4a565b6040516001600160e01b031960e086901b1681526001600160a01b03909316600484015260200201356024820152604401602060405180830381865afa158015610a6c573d6000803e3d6000fd5b505050506040513d601f19601f82011682018060405250810190610a909190611e60565b610adc5760405162461bcd60e51b815260206004820152601360248201527f5472616974206973206e6f74207374616b65640000000000000000000000000060448201526064016104f0565b80610ae681611e93565b9150506109f1565b506000828152600e6020526040902061059190826005611a80565b6060600180546103b690611e10565b6107823383836111d2565b610b2d3383610f54565b610b9f5760405162461bcd60e51b815260206004820152602e60248201527f4552433732313a2063616c6c6572206973206e6f7420746f6b656e206f776e6560448201527f72206e6f7220617070726f76656400000000000000000000000000000000000060648201526084016104f0565b610bab848484846112a0565b50505050565b6060610bbc82610e72565b6000610bf860408051808201909152600681527f7572693a2f2f0000000000000000000000000000000000000000000000000000602082015290565b6040805160208101909152600080825291925090610c1585610845565b905060005b6000868152600e6020526040902054811015610cbd576000868152600e6020526040902080548491610c669184908110610c5657610c56611e4a565b906000526020600020015461131e565b604051602001610c77929190611eac565b604051602081830303815290604052925082604051602001610c999190611edb565b60405160208183030381529060405292508080610cb590611e93565b915050610c1a565b5060005b6000868152600e6020526040902054811015610de957600c546000878152600e6020526040902080546001600160a01b0390921691638f16981691859185908110610d0e57610d0e611e4a565b6000918252602090912001546040516001600160e01b031960e085901b1681526001600160a01b0390921660048301526024820152604401602060405180830381865afa158015610d63573d6000803e3d6000fd5b505050506040513d601f19601f82011682018060405250810190610d879190611e60565b610dd7576000845111610da95760405180602001604052806000815250610dcd565b83600b604051602001610dbd929190611f1c565b6040516020818303038152906040525b9695505050505050565b80610de181611e93565b915050610cc1565b506000835111610e085760405180602001604052806000815250610e2b565b8282604051602001610e1b929190611eac565b6040516020818303038152906040525b95945050505050565b60006001600160e01b031982167f780e9d630000000000000000000000000000000000000000000000000000000014806103a157506103a182611453565b6000818152600260205260409020546001600160a01b0316610ed65760405162461bcd60e51b815260206004820152601860248201527f4552433732313a20696e76616c696420746f6b656e204944000000000000000060448201526064016104f0565b50565b6000818152600460205260409020805473ffffffffffffffffffffffffffffffffffffffff19166001600160a01b0384169081179091558190610f1b82610845565b6001600160a01b03167f8c5be1e5ebec7d5bd14f71427d1e84f3dd0314c0f7b2291e5b200ac8c7c3b92560405160405180910390a45050565b600080610f6083610845565b9050806001600160a01b0316846001600160a01b03161480610fa757506001600160a01b0380821660009081526005602090815260408083209388168352929052205460ff165b80610fcb5750836001600160a01b0316610fc084610439565b6001600160a01b0316145b949350505050565b826001600160a01b0316610fe682610845565b6001600160a01b0316146110625760405162461bcd60e51b815260206004820152602560248201527f4552433732313a207472616e736665722066726f6d20696e636f72726563742060448201527f6f776e657200000000000000000000000000000000000000000000000000000060648201526084016104f0565b6001600160a01b0382166110dd5760405162461bcd60e51b8152602060048201526024808201527f4552433732313a207472616e7366657220746f20746865207a65726f2061646460448201527f726573730000000000000000000000000000000000000000000000000000000060648201526084016104f0565b6110e88383836114ee565b6110f3600082610ed9565b6001600160a01b038316600090815260036020526040812080546001929061111c908490611fa9565b90915550506001600160a01b038216600090815260036020526040812080546001929061114a908490611fbc565b9091555050600081815260026020526040808220805473ffffffffffffffffffffffffffffffffffffffff19166001600160a01b0386811691821790925591518493918716917fddf252ad1be2c89b69c2b068fc378daa952ba7f163c4a11628f55a4df523b3ef91a4505050565b610782828260405180602001604052806000815250611513565b816001600160a01b0316836001600160a01b0316036112335760405162461bcd60e51b815260206004820152601960248201527f4552433732313a20617070726f766520746f2063616c6c65720000000000000060448201526064016104f0565b6001600160a01b03838116600081815260056020908152604080832094871680845294825291829020805460ff191686151590811790915591519182527f17307eab39ab6107e8899845ad3d59bd9653f200f220920489ca2b5937696c31910160405180910390a3505050565b6112ab848484610fd3565b6112b784848484611591565b610bab5760405162461bcd60e51b815260206004820152603260248201527f4552433732313a207472616e7366657220746f206e6f6e20455243373231526560448201527131b2b4bb32b91034b6b83632b6b2b73a32b960711b60648201526084016104f0565b60608160000361136157505060408051808201909152600181527f3000000000000000000000000000000000000000000000000000000000000000602082015290565b8160005b811561138b578061137581611e93565b91506113849050600a83611fe5565b9150611365565b60008167ffffffffffffffff8111156113a6576113a6611cf4565b6040519080825280601f01601f1916602001820160405280156113d0576020820181803683370190505b5090505b8415610fcb576113e5600183611fa9565b91506113f2600a86611ff9565b6113fd906030611fbc565b60f81b81838151811061141257611412611e4a565b60200101907effffffffffffffffffffffffffffffffffffffffffffffffffffffffffffff1916908160001a90535061144c600a86611fe5565b94506113d4565b60006001600160e01b031982167f80ac58cd0000000000000000000000000000000000000000000000000000000014806114b657506001600160e01b031982167f5b5e139f00000000000000000000000000000000000000000000000000000000145b806103a157507f01ffc9a7000000000000000000000000000000000000000000000000000000006001600160e01b03198316146103a1565b6000818152600d60205260409020611507600b8261205b565b506105918383836116dd565b61151d8383611795565b61152a6000848484611591565b6105915760405162461bcd60e51b815260206004820152603260248201527f4552433732313a207472616e7366657220746f206e6f6e20455243373231526560448201527131b2b4bb32b91034b6b83632b6b2b73a32b960711b60648201526084016104f0565b60006001600160a01b0384163b156116d257604051630a85bd0160e11b81526001600160a01b0385169063150b7a02906115d590339089908890889060040161213c565b6020604051808303816000875af1925050508015611610575060408051601f3d908101601f1916820190925261160d9181019061216e565b60015b6116b8573d80801561163e576040519150601f19603f3d011682016040523d82523d6000602084013e611643565b606091505b5080516000036116b05760405162461bcd60e51b815260206004820152603260248201527f4552433732313a207472616e7366657220746f206e6f6e20455243373231526560448201527131b2b4bb32b91034b6b83632b6b2b73a32b960711b60648201526084016104f0565b805181602001fd5b6001600160e01b031916630a85bd0160e11b149050610fcb565b506001949350505050565b6001600160a01b0383166117385761173381600880546000838152600960205260408120829055600182018355919091527ff3f7a9fe364faab93b216da50a3214154f22a0a2b415b23a84c8169e8b636ee30155565b61175b565b816001600160a01b0316836001600160a01b03161461175b5761175b83826118f0565b6001600160a01b038216611772576105918161198d565b826001600160a01b0316826001600160a01b031614610591576105918282611a3c565b6001600160a01b0382166117eb5760405162461bcd60e51b815260206004820181905260248201527f4552433732313a206d696e7420746f20746865207a65726f206164647265737360448201526064016104f0565b6000818152600260205260409020546001600160a01b0316156118505760405162461bcd60e51b815260206004820152601c60248201527f4552433732313a20746f6b656e20616c7265616479206d696e7465640000000060448201526064016104f0565b61185c600083836114ee565b6001600160a01b0382166000908152600360205260408120805460019290611885908490611fbc565b9091555050600081815260026020526040808220805473ffffffffffffffffffffffffffffffffffffffff19166001600160a01b03861690811790915590518392907fddf252ad1be2c89b69c2b068fc378daa952ba7f163c4a11628f55a4df523b3ef908290a45050565b600060016118fd846108db565b6119079190611fa9565b60008381526007602052604090205490915080821461195a576001600160a01b03841660009081526006602090815260408083208584528252808320548484528184208190558352600790915290208190555b5060009182526007602090815260408084208490556001600160a01b039094168352600681528383209183525290812055565b60085460009061199f90600190611fa9565b600083815260096020526040812054600880549394509092849081106119c7576119c7611e4a565b9060005260206000200154905080600883815481106119e8576119e8611e4a565b6000918252602080832090910192909255828152600990915260408082208490558582528120556008805480611a2057611a2061218b565b6001900381819060005260206000200160009055905550505050565b6000611a47836108db565b6001600160a01b039093166000908152600660209081526040808320868452825280832085905593825260079052919091209190915550565b828054828255906000526020600020908101928215611abb579160200282015b82811115611abb578235825591602001919060010190611aa0565b50611ac7929150611acb565b5090565b5b80821115611ac75760008155600101611acc565b6001600160e01b031981168114610ed657600080fd5b600060208284031215611b0857600080fd5b8135611b1381611ae0565b9392505050565b60005b83811015611b35578181015183820152602001611b1d565b50506000910152565b60008151808452611b56816020860160208601611b1a565b601f01601f19169290920160200192915050565b602081526000611b136020830184611b3e565b600060208284031215611b8f57600080fd5b5035919050565b80356001600160a01b0381168114611bad57600080fd5b919050565b60008060408385031215611bc557600080fd5b611bce83611b96565b946020939093013593505050565b600080600060608486031215611bf157600080fd5b611bfa84611b96565b9250611c0860208501611b96565b9150604084013590509250925092565b8060a081018310156103a157600080fd5b600060a08284031215611c3b57600080fd5b611b138383611c18565b60008060408385031215611c5857600080fd5b50508035926020909101359150565b600060208284031215611c7957600080fd5b611b1382611b96565b60008060c08385031215611c9557600080fd5b82359150611ca68460208501611c18565b90509250929050565b8015158114610ed657600080fd5b60008060408385031215611cd057600080fd5b611cd983611b96565b91506020830135611ce981611caf565b809150509250929050565b634e487b7160e01b600052604160045260246000fd5b60008060008060808587031215611d2057600080fd5b611d2985611b96565b9350611d3760208601611b96565b925060408501359150606085013567ffffffffffffffff80821115611d5b57600080fd5b818701915087601f830112611d6f57600080fd5b813581811115611d8157611d81611cf4565b604051601f8201601f19908116603f01168101908382118183101715611da957611da9611cf4565b816040528281528a6020848701011115611dc257600080fd5b82602086016020830137600060208483010152809550505050505092959194509250565b60008060408385031215611df957600080fd5b611e0283611b96565b9150611ca660208401611b96565b600181811c90821680611e2457607f821691505b602082108103611e4457634e487b7160e01b600052602260045260246000fd5b50919050565b634e487b7160e01b600052603260045260246000fd5b600060208284031215611e7257600080fd5b8151611b1381611caf565b634e487b7160e01b600052601160045260246000fd5b600060018201611ea557611ea5611e7d565b5060010190565b60008351611ebe818460208801611b1a565b835190830190611ed2818360208801611b1a565b01949350505050565b60008251611eed818460208701611b1a565b7f5f00000000000000000000000000000000000000000000000000000000000000920191825250600101919050565b600083516020611f2f8285838901611b1a565b818401915060008554611f4181611e10565b60018281168015611f595760018114611f6e57611f9a565b60ff1984168752821515830287019450611f9a565b896000528560002060005b84811015611f9257815489820152908301908701611f79565b505082870194505b50929998505050505050505050565b818103818111156103a1576103a1611e7d565b808201808211156103a1576103a1611e7d565b634e487b7160e01b600052601260045260246000fd5b600082611ff457611ff4611fcf565b500490565b60008261200857612008611fcf565b500690565b601f82111561059157600081815260208120601f850160051c810160208610156120345750805b601f850160051c820191505b8181101561205357828155600101612040565b505050505050565b818103612066575050565b6120708254611e10565b67ffffffffffffffff81111561208857612088611cf4565b61209c816120968454611e10565b8461200d565b6000601f8211600181146120d057600083156120b85750848201545b600019600385901b1c1916600184901b178455612135565b600085815260209020601f19841690600086815260209020845b8381101561210a57828601548255600195860195909101906020016120ea565b50858310156121285781850154600019600388901b60f8161c191681555b50505060018360011b0184555b5050505050565b60006001600160a01b03808716835280861660208401525083604083015260806060830152610dcd6080830184611b3e565b60006020828403121561218057600080fd5b8151611b1381611ae0565b634e487b7160e01b600052603160045260246000fdfea264697066735822122058410be35ec158accf6e1e8683ef46d6c5045bb2b2a61519cf55a88ca2b70df964736f6c63430008110033",
  "linkReferences": {},
  "deployedLinkReferences": {}
}