{
  "_format": "hh-sol-artifact-1",
  "contractName": "Blergs",
  "sourceName": "contracts/Blergs.sol",
  "abi": [
    {
      "inputs": [],
      "stateMutability": "nonpayable",
      "type": "constructor"
    },
    {
      "anonymous": false,
      "inputs": [
        {
          "indexed": true,
          "internalType": "address",
          "name": "owner",
          "type": "address"
        },
        {
          "indexed": true,
          "internalType": "address",
          "name": "approved",
          "type": "address"
        },
        {
          "indexed": true,
          "internalType": "uint256",
          "name": "tokenId",
          "type": "uint256"
        }
      ],
      "name": "Approval",
      "type": "event"
    },
    {
      "anonymous": false,
      "inputs": [
        {
          "indexed": true,
          "internalType": "address",
          "name": "owner",
          "type": "address"
        },
        {
          "indexed": true,
          "internalType": "address",
          "name": "operator",
          "type": "address"
        },
        {
          "indexed": false,
          "internalType": "bool",
          "name": "approved",
          "type": "bool"
        }
      ],
      "name": "ApprovalForAll",
      "type": "event"
    },
    {
      "anonymous": false,
      "inputs": [
        {
          "indexed": true,
          "internalType": "address",
          "name": "from",
          "type": "address"
        },
        {
          "indexed": true,
          "internalType": "address",
          "name": "to",
          "type": "address"
        },
        {
          "indexed": true,
          "internalType": "uint256",
          "name": "tokenId",
          "type": "uint256"
        }
      ],
      "name": "Transfer",
      "type": "event"
    },
    {
      "inputs": [
        {
          "internalType": "address",
          "name": "to",
          "type": "address"
        },
        {
          "internalType": "uint256",
          "name": "tokenId",
          "type": "uint256"
        }
      ],
      "name": "approve",
      "outputs": [],
      "stateMutability": "nonpayable",
      "type": "function"
    },
    {
      "inputs": [
        {
          "internalType": "uint256",
          "name": "",
          "type": "uint256"
        }
      ],
      "name": "artworkRef",
      "outputs": [
        {
          "internalType": "string",
          "name": "",
          "type": "string"
        }
      ],
      "stateMutability": "view",
      "type": "function"
    },
    {
      "inputs": [
        {
          "internalType": "address",
          "name": "owner",
          "type": "address"
        }
      ],
      "name": "balanceOf",
      "outputs": [
        {
          "internalType": "uint256",
          "name": "",
          "type": "uint256"
        }
      ],
      "stateMutability": "view",
      "type": "function"
    },
    {
      "inputs": [],
      "name": "blankBlergRef",
      "outputs": [
        {
          "internalType": "string",
          "name": "",
          "type": "string"
        }
      ],
      "stateMutability": "view",
      "type": "function"
    },
    {
      "inputs": [
        {
          "internalType": "uint256",
          "name": "",
          "type": "uint256"
        },
        {
          "internalType": "uint256",
          "name": "",
          "type": "uint256"
        }
      ],
      "name": "blergTraits",
      "outputs": [
        {
          "internalType": "uint256",
          "name": "",
          "type": "uint256"
        }
      ],
      "stateMutability": "view",
      "type": "function"
    },
    {
      "inputs": [
        {
          "internalType": "uint256",
          "name": "tokenId",
          "type": "uint256"
        }
      ],
      "name": "getApproved",
      "outputs": [
        {
          "internalType": "address",
          "name": "",
          "type": "address"
        }
      ],
      "stateMutability": "view",
      "type": "function"
    },
    {
      "inputs": [
        {
          "internalType": "address",
          "name": "owner",
          "type": "address"
        },
        {
          "internalType": "address",
          "name": "operator",
          "type": "address"
        }
      ],
      "name": "isApprovedForAll",
      "outputs": [
        {
          "internalType": "bool",
          "name": "",
          "type": "bool"
        }
      ],
      "stateMutability": "view",
      "type": "function"
    },
    {
      "inputs": [],
      "name": "mint",
      "outputs": [],
      "stateMutability": "nonpayable",
      "type": "function"
    },
    {
      "inputs": [
        {
          "internalType": "uint256[]",
          "name": "traits",
          "type": "uint256[]"
        }
      ],
      "name": "mintWithTraits",
      "outputs": [],
      "stateMutability": "nonpayable",
      "type": "function"
    },
    {
      "inputs": [],
      "name": "name",
      "outputs": [
        {
          "internalType": "string",
          "name": "",
          "type": "string"
        }
      ],
      "stateMutability": "view",
      "type": "function"
    },
    {
      "inputs": [
        {
          "internalType": "address",
          "name": "from",
          "type": "address"
        },
        {
          "internalType": "uint256[]",
          "name": "traitIds",
          "type": "uint256[]"
        }
      ],
      "name": "onTraitTransfer",
      "outputs": [],
      "stateMutability": "nonpayable",
      "type": "function"
    },
    {
      "inputs": [
        {
          "internalType": "uint256",
          "name": "tokenId",
          "type": "uint256"
        }
      ],
      "name": "ownerOf",
      "outputs": [
        {
          "internalType": "address",
          "name": "",
          "type": "address"
        }
      ],
      "stateMutability": "view",
      "type": "function"
    },
    {
      "inputs": [
        {
          "internalType": "address",
          "name": "from",
          "type": "address"
        },
        {
          "internalType": "address",
          "name": "to",
          "type": "address"
        },
        {
          "internalType": "uint256",
          "name": "tokenId",
          "type": "uint256"
        }
      ],
      "name": "safeTransferFrom",
      "outputs": [],
      "stateMutability": "nonpayable",
      "type": "function"
    },
    {
      "inputs": [
        {
          "internalType": "address",
          "name": "from",
          "type": "address"
        },
        {
          "internalType": "address",
          "name": "to",
          "type": "address"
        },
        {
          "internalType": "uint256",
          "name": "tokenId",
          "type": "uint256"
        },
        {
          "internalType": "bytes",
          "name": "data",
          "type": "bytes"
        }
      ],
      "name": "safeTransferFrom",
      "outputs": [],
      "stateMutability": "nonpayable",
      "type": "function"
    },
    {
      "inputs": [
        {
          "internalType": "address",
          "name": "operator",
          "type": "address"
        },
        {
          "internalType": "bool",
          "name": "approved",
          "type": "bool"
        }
      ],
      "name": "setApprovalForAll",
      "outputs": [],
      "stateMutability": "nonpayable",
      "type": "function"
    },
    {
      "inputs": [
        {
          "internalType": "uint256",
          "name": "tokenId",
          "type": "uint256"
        },
        {
          "internalType": "uint256[]",
          "name": "traits",
          "type": "uint256[]"
        }
      ],
      "name": "setTraits",
      "outputs": [],
      "stateMutability": "nonpayable",
      "type": "function"
    },
    {
      "inputs": [
        {
          "internalType": "address",
          "name": "traitsAddress",
          "type": "address"
        }
      ],
      "name": "setTraitsAddress",
      "outputs": [],
      "stateMutability": "nonpayable",
      "type": "function"
    },
    {
      "inputs": [
        {
          "internalType": "bytes4",
          "name": "interfaceId",
          "type": "bytes4"
        }
      ],
      "name": "supportsInterface",
      "outputs": [
        {
          "internalType": "bool",
          "name": "",
          "type": "bool"
        }
      ],
      "stateMutability": "view",
      "type": "function"
    },
    {
      "inputs": [],
      "name": "symbol",
      "outputs": [
        {
          "internalType": "string",
          "name": "",
          "type": "string"
        }
      ],
      "stateMutability": "view",
      "type": "function"
    },
    {
      "inputs": [
        {
          "internalType": "uint256",
          "name": "index",
          "type": "uint256"
        }
      ],
      "name": "tokenByIndex",
      "outputs": [
        {
          "internalType": "uint256",
          "name": "",
          "type": "uint256"
        }
      ],
      "stateMutability": "view",
      "type": "function"
    },
    {
      "inputs": [
        {
          "internalType": "address",
          "name": "owner",
          "type": "address"
        },
        {
          "internalType": "uint256",
          "name": "index",
          "type": "uint256"
        }
      ],
      "name": "tokenOfOwnerByIndex",
      "outputs": [
        {
          "internalType": "uint256",
          "name": "",
          "type": "uint256"
        }
      ],
      "stateMutability": "view",
      "type": "function"
    },
    {
      "inputs": [
        {
          "internalType": "uint256",
          "name": "tokenId",
          "type": "uint256"
        }
      ],
      "name": "tokenURI",
      "outputs": [
        {
          "internalType": "string",
          "name": "",
          "type": "string"
        }
      ],
      "stateMutability": "view",
      "type": "function"
    },
    {
      "inputs": [],
      "name": "totalSupply",
      "outputs": [
        {
          "internalType": "uint256",
          "name": "",
          "type": "uint256"
        }
      ],
      "stateMutability": "view",
      "type": "function"
    },
    {
      "inputs": [
        {
          "internalType": "address",
          "name": "from",
          "type": "address"
        },
        {
          "internalType": "address",
          "name": "to",
          "type": "address"
        },
        {
          "internalType": "uint256",
          "name": "tokenId",
          "type": "uint256"
        }
      ],
      "name": "transferFrom",
      "outputs": [],
      "stateMutability": "nonpayable",
      "type": "function"
    }
  ],
  "bytecode": "0x60c060405260046080908152630303030360e41b60a052600b906200002590826200013a565b503480156200003357600080fd5b5060405180604001604052806003815260200162426c2d60e81b81525060405180604001604052806003815260200162212b1960e91b81525081600090816200007d91906200013a565b5060016200008c82826200013a565b50505062000206565b634e487b7160e01b600052604160045260246000fd5b600181811c90821680620000c057607f821691505b602082108103620000e157634e487b7160e01b600052602260045260246000fd5b50919050565b601f8211156200013557600081815260208120601f850160051c81016020861015620001105750805b601f850160051c820191505b8181101562000131578281556001016200011c565b5050505b505050565b81516001600160401b0381111562000156576200015662000095565b6200016e81620001678454620000ab565b84620000e7565b602080601f831160018114620001a657600084156200018d5750858301515b600019600386901b1c1916600185901b17855562000131565b600085815260208120601f198616915b82811015620001d757888601518255948401946001909101908401620001b6565b5085821015620001f65787850151600019600388901b60f8161c191681555b5050505050600190811b01905550565b61272980620002166000396000f3fe608060405234801561001057600080fd5b50600436106101985760003560e01c80636ffcf4cd116100e3578063a22cb4651161008c578063c87b56dd11610066578063c87b56dd14610365578063e985e9c514610378578063efb1c51f146103b457600080fd5b8063a22cb4651461032c578063a5ee45831461033f578063b88d4fde1461035257600080fd5b806388d210f0116100bd57806388d210f0146102d45780638affb485146102e757806395d89b411461032457600080fd5b80636ffcf4cd1461029b57806370a08231146102ae57806371150bce146102c157600080fd5b806323b872dd1161014557806342842e0e1161011f57806342842e0e146102625780634f6ccce7146102755780636352211e1461028857600080fd5b806323b872dd146102345780632f745c59146102475780633354c8631461025a57600080fd5b8063095ea7b311610176578063095ea7b3146102055780631249c58b1461021a57806318160ddd1461022257600080fd5b806301ffc9a71461019d57806306fdde03146101c5578063081812fc146101da575b600080fd5b6101b06101ab366004611d0b565b6103c7565b60405190151581526020015b60405180910390f35b6101cd6103d8565b6040516101bc9190611d78565b6101ed6101e8366004611d8b565b61046a565b6040516001600160a01b0390911681526020016101bc565b610218610213366004611dc0565b610491565b005b6102186105c7565b6008545b6040519081526020016101bc565b610218610242366004611dea565b610609565b610226610255366004611dc0565b610690565b6101cd610738565b610218610270366004611dea565b6107c6565b610226610283366004611d8b565b6107e1565b6101ed610296366004611d8b565b610885565b6102266102a9366004611e26565b6108ea565b6102266102bc366004611e48565b61091b565b6101cd6102cf366004611d8b565b6109b5565b6102186102e2366004611eaf565b6109ce565b6102186102f5366004611e48565b600c805473ffffffffffffffffffffffffffffffffffffffff19166001600160a01b0392909216919091179055565b6101cd610d30565b61021861033a366004611efb565b610d3f565b61021861034d366004611fa2565b610d4e565b61021861036036600461204b565b610ef1565b6101cd610373366004611d8b565b610f79565b6101b061038636600461210b565b6001600160a01b03918216600090815260056020908152604080832093909416825291909152205460ff1690565b6102186103c236600461213e565b61101c565b60006103d28261104c565b92915050565b6060600080546103e790612180565b80601f016020809104026020016040519081016040528092919081815260200182805461041390612180565b80156104605780601f1061043557610100808354040283529160200191610460565b820191906000526020600020905b81548152906001019060200180831161044357829003601f168201915b5050505050905090565b60006104758261108a565b506000908152600460205260409020546001600160a01b031690565b600061049c82610885565b9050806001600160a01b0316836001600160a01b03160361052a5760405162461bcd60e51b815260206004820152602160248201527f4552433732313a20617070726f76616c20746f2063757272656e74206f776e6560448201527f720000000000000000000000000000000000000000000000000000000000000060648201526084015b60405180910390fd5b336001600160a01b038216148061054657506105468133610386565b6105b85760405162461bcd60e51b815260206004820152603e60248201527f4552433732313a20617070726f76652063616c6c6572206973206e6f7420746f60448201527f6b656e206f776e6572206e6f7220617070726f76656420666f7220616c6c00006064820152608401610521565b6105c283836110ee565b505050565b60006105d2600a5490565b90506105de3382611169565b6000818152600d602052604090206105f7600b82612208565b50610606600a80546001019055565b50565b6106133382611183565b6106855760405162461bcd60e51b815260206004820152602e60248201527f4552433732313a2063616c6c6572206973206e6f7420746f6b656e206f776e6560448201527f72206e6f7220617070726f7665640000000000000000000000000000000000006064820152608401610521565b6105c2838383611202565b600061069b8361091b565b821061070f5760405162461bcd60e51b815260206004820152602b60248201527f455243373231456e756d657261626c653a206f776e657220696e646578206f7560448201527f74206f6620626f756e64730000000000000000000000000000000000000000006064820152608401610521565b506001600160a01b03919091166000908152600660209081526040808320938352929052205490565b600b805461074590612180565b80601f016020809104026020016040519081016040528092919081815260200182805461077190612180565b80156107be5780601f10610793576101008083540402835291602001916107be565b820191906000526020600020905b8154815290600101906020018083116107a157829003601f168201915b505050505081565b6105c283838360405180602001604052806000815250610ef1565b60006107ec60085490565b82106108605760405162461bcd60e51b815260206004820152602c60248201527f455243373231456e756d657261626c653a20676c6f62616c20696e646578206f60448201527f7574206f6620626f756e647300000000000000000000000000000000000000006064820152608401610521565b60088281548110610873576108736122e9565b90600052602060002001549050919050565b6000818152600260205260408120546001600160a01b0316806103d25760405162461bcd60e51b815260206004820152601860248201527f4552433732313a20696e76616c696420746f6b656e20494400000000000000006044820152606401610521565b600e602052816000526040600020818154811061090657600080fd5b90600052602060002001600091509150505481565b60006001600160a01b0382166109995760405162461bcd60e51b815260206004820152602960248201527f4552433732313a2061646472657373207a65726f206973206e6f74206120766160448201527f6c6964206f776e657200000000000000000000000000000000000000000000006064820152608401610521565b506001600160a01b031660009081526003602052604090205490565b600d602052600090815260409020805461074590612180565b336109d884610885565b6001600160a01b031614610a2e5760405162461bcd60e51b815260206004820152601260248201527f4d757374204f776e2054686520426c65726700000000000000000000000000006044820152606401610521565b60408051600580825260c082019092526000916020820160a08036833701905050905060005b8151811015610a9a5733828281518110610a7057610a706122e9565b6001600160a01b039092166020928302919091019091015280610a9281612315565b915050610a54565b50600c546040517f4e1273f40000000000000000000000000000000000000000000000000000000081526000916001600160a01b031690634e1273f490610ae99085908890889060040161232e565b600060405180830381865afa158015610b06573d6000803e3d6000fd5b505050506040513d6000823e601f3d908101601f19168201604052610b2e91908101906123bf565b60408051602081019091526000808252919250905b8251811015610c2e576000838281518110610b6057610b606122e9565b602002602001015111610bb55760405162461bcd60e51b815260206004820152600d60248201527f4d697373696e67205472616974000000000000000000000000000000000000006044820152606401610521565b81610bd7878784818110610bcb57610bcb6122e9565b905060200201356113e7565b604051602001610be8929190612450565b604051602081830303815290604052915081604051602001610c0a919061247f565b60405160208183030381529060405291508080610c2690612315565b915050610b43565b506000868152600d60205260409020610c4782826124c0565b506000868152600e60205260409020610c61908686611c95565b50600c54604051630c6c1e5760e21b81523060048201523360248201526001600160a01b03909116906331b0795c90604401600060405180830381600087803b158015610cad57600080fd5b505af1158015610cc1573d6000803e3d6000fd5b5050600c54604051630c6c1e5760e21b81523060048201523360248201526001600160a01b0390911692506331b0795c9150604401600060405180830381600087803b158015610d1057600080fd5b505af1158015610d24573d6000803e3d6000fd5b50505050505050505050565b6060600180546103e790612180565b610d4a33838361151c565b5050565b6000610d598361091b565b905060005b81811015610eeb576000610d728583610690565b905060005b8451811015610ed65760005b6000838152600e6020526040902054811015610ec357858281518110610dab57610dab6122e9565b6020026020010151600e60008581526020019081526020016000208281548110610dd757610dd76122e9565b9060005260206000200154148015610e915750600c5486516002916001600160a01b03169062fdd58e908a908a9087908110610e1557610e156122e9565b60200260200101516040518363ffffffff1660e01b8152600401610e4e9291906001600160a01b03929092168252602082015260400190565b602060405180830381865afa158015610e6b573d6000803e3d6000fd5b505050506040513d601f19601f82011682018060405250810190610e8f919061257a565b105b15610eb1576000838152600d60205260409020610eaf600b82612208565b505b80610ebb81612315565b915050610d83565b5080610ece81612315565b915050610d77565b50508080610ee390612315565b915050610d5e565b50505050565b610efb3383611183565b610f6d5760405162461bcd60e51b815260206004820152602e60248201527f4552433732313a2063616c6c6572206973206e6f7420746f6b656e206f776e6560448201527f72206e6f7220617070726f7665640000000000000000000000000000000000006064820152608401610521565b610eeb848484846115ea565b6060610f848261108a565b6000610fc060408051808201909152600681527f7572693a2f2f0000000000000000000000000000000000000000000000000000602082015290565b90506000815111610fe05760405180602001604052806000815250611015565b80600d6000858152602001908152602001600020604051602001611005929190612593565b6040516020818303038152906040525b9392505050565b6000611027600a5490565b90506110333382611169565b61103e8184846109ce565b6105c2600a80546001019055565b60006001600160e01b031982167f780e9d630000000000000000000000000000000000000000000000000000000014806103d257506103d282611668565b6000818152600260205260409020546001600160a01b03166106065760405162461bcd60e51b815260206004820152601860248201527f4552433732313a20696e76616c696420746f6b656e20494400000000000000006044820152606401610521565b6000818152600460205260409020805473ffffffffffffffffffffffffffffffffffffffff19166001600160a01b038416908117909155819061113082610885565b6001600160a01b03167f8c5be1e5ebec7d5bd14f71427d1e84f3dd0314c0f7b2291e5b200ac8c7c3b92560405160405180910390a45050565b610d4a828260405180602001604052806000815250611703565b60008061118f83610885565b9050806001600160a01b0316846001600160a01b031614806111d657506001600160a01b0380821660009081526005602090815260408083209388168352929052205460ff165b806111fa5750836001600160a01b03166111ef8461046a565b6001600160a01b0316145b949350505050565b826001600160a01b031661121582610885565b6001600160a01b0316146112915760405162461bcd60e51b815260206004820152602560248201527f4552433732313a207472616e736665722066726f6d20696e636f72726563742060448201527f6f776e65720000000000000000000000000000000000000000000000000000006064820152608401610521565b6001600160a01b03821661130c5760405162461bcd60e51b8152602060048201526024808201527f4552433732313a207472616e7366657220746f20746865207a65726f2061646460448201527f72657373000000000000000000000000000000000000000000000000000000006064820152608401610521565b611317838383611781565b6113226000826110ee565b6001600160a01b038316600090815260036020526040812080546001929061134b908490612620565b90915550506001600160a01b0382166000908152600360205260408120805460019290611379908490612633565b9091555050600081815260026020526040808220805473ffffffffffffffffffffffffffffffffffffffff19166001600160a01b0386811691821790925591518493918716917fddf252ad1be2c89b69c2b068fc378daa952ba7f163c4a11628f55a4df523b3ef91a4505050565b60608160000361142a57505060408051808201909152600181527f3000000000000000000000000000000000000000000000000000000000000000602082015290565b8160005b8115611454578061143e81612315565b915061144d9050600a8361265c565b915061142e565b60008167ffffffffffffffff81111561146f5761146f611f37565b6040519080825280601f01601f191660200182016040528015611499576020820181803683370190505b5090505b84156111fa576114ae600183612620565b91506114bb600a86612670565b6114c6906030612633565b60f81b8183815181106114db576114db6122e9565b60200101907effffffffffffffffffffffffffffffffffffffffffffffffffffffffffffff1916908160001a905350611515600a8661265c565b945061149d565b816001600160a01b0316836001600160a01b03160361157d5760405162461bcd60e51b815260206004820152601960248201527f4552433732313a20617070726f766520746f2063616c6c6572000000000000006044820152606401610521565b6001600160a01b03838116600081815260056020908152604080832094871680845294825291829020805460ff191686151590811790915591519182527f17307eab39ab6107e8899845ad3d59bd9653f200f220920489ca2b5937696c31910160405180910390a3505050565b6115f5848484611202565b611601848484846117a6565b610eeb5760405162461bcd60e51b815260206004820152603260248201527f4552433732313a207472616e7366657220746f206e6f6e20455243373231526560448201527131b2b4bb32b91034b6b83632b6b2b73a32b960711b6064820152608401610521565b60006001600160e01b031982167f80ac58cd0000000000000000000000000000000000000000000000000000000014806116cb57506001600160e01b031982167f5b5e139f00000000000000000000000000000000000000000000000000000000145b806103d257507f01ffc9a7000000000000000000000000000000000000000000000000000000006001600160e01b03198316146103d2565b61170d83836118f2565b61171a60008484846117a6565b6105c25760405162461bcd60e51b815260206004820152603260248201527f4552433732313a207472616e7366657220746f206e6f6e20455243373231526560448201527131b2b4bb32b91034b6b83632b6b2b73a32b960711b6064820152608401610521565b6000818152600d6020526040902061179a600b82612208565b506105c2838383611a4d565b60006001600160a01b0384163b156118e757604051630a85bd0160e11b81526001600160a01b0385169063150b7a02906117ea903390899088908890600401612684565b6020604051808303816000875af1925050508015611825575060408051601f3d908101601f19168201909252611822918101906126c0565b60015b6118cd573d808015611853576040519150601f19603f3d011682016040523d82523d6000602084013e611858565b606091505b5080516000036118c55760405162461bcd60e51b815260206004820152603260248201527f4552433732313a207472616e7366657220746f206e6f6e20455243373231526560448201527131b2b4bb32b91034b6b83632b6b2b73a32b960711b6064820152608401610521565b805181602001fd5b6001600160e01b031916630a85bd0160e11b1490506111fa565b506001949350505050565b6001600160a01b0382166119485760405162461bcd60e51b815260206004820181905260248201527f4552433732313a206d696e7420746f20746865207a65726f20616464726573736044820152606401610521565b6000818152600260205260409020546001600160a01b0316156119ad5760405162461bcd60e51b815260206004820152601c60248201527f4552433732313a20746f6b656e20616c7265616479206d696e746564000000006044820152606401610521565b6119b960008383611781565b6001600160a01b03821660009081526003602052604081208054600192906119e2908490612633565b9091555050600081815260026020526040808220805473ffffffffffffffffffffffffffffffffffffffff19166001600160a01b03861690811790915590518392907fddf252ad1be2c89b69c2b068fc378daa952ba7f163c4a11628f55a4df523b3ef908290a45050565b6001600160a01b038316611aa857611aa381600880546000838152600960205260408120829055600182018355919091527ff3f7a9fe364faab93b216da50a3214154f22a0a2b415b23a84c8169e8b636ee30155565b611acb565b816001600160a01b0316836001600160a01b031614611acb57611acb8382611b05565b6001600160a01b038216611ae2576105c281611ba2565b826001600160a01b0316826001600160a01b0316146105c2576105c28282611c51565b60006001611b128461091b565b611b1c9190612620565b600083815260076020526040902054909150808214611b6f576001600160a01b03841660009081526006602090815260408083208584528252808320548484528184208190558352600790915290208190555b5060009182526007602090815260408084208490556001600160a01b039094168352600681528383209183525290812055565b600854600090611bb490600190612620565b60008381526009602052604081205460088054939450909284908110611bdc57611bdc6122e9565b906000526020600020015490508060088381548110611bfd57611bfd6122e9565b6000918252602080832090910192909255828152600990915260408082208490558582528120556008805480611c3557611c356126dd565b6001900381819060005260206000200160009055905550505050565b6000611c5c8361091b565b6001600160a01b039093166000908152600660209081526040808320868452825280832085905593825260079052919091209190915550565b828054828255906000526020600020908101928215611cd0579160200282015b82811115611cd0578235825591602001919060010190611cb5565b50611cdc929150611ce0565b5090565b5b80821115611cdc5760008155600101611ce1565b6001600160e01b03198116811461060657600080fd5b600060208284031215611d1d57600080fd5b813561101581611cf5565b60005b83811015611d43578181015183820152602001611d2b565b50506000910152565b60008151808452611d64816020860160208601611d28565b601f01601f19169290920160200192915050565b6020815260006110156020830184611d4c565b600060208284031215611d9d57600080fd5b5035919050565b80356001600160a01b0381168114611dbb57600080fd5b919050565b60008060408385031215611dd357600080fd5b611ddc83611da4565b946020939093013593505050565b600080600060608486031215611dff57600080fd5b611e0884611da4565b9250611e1660208501611da4565b9150604084013590509250925092565b60008060408385031215611e3957600080fd5b50508035926020909101359150565b600060208284031215611e5a57600080fd5b61101582611da4565b60008083601f840112611e7557600080fd5b50813567ffffffffffffffff811115611e8d57600080fd5b6020830191508360208260051b8501011115611ea857600080fd5b9250929050565b600080600060408486031215611ec457600080fd5b83359250602084013567ffffffffffffffff811115611ee257600080fd5b611eee86828701611e63565b9497909650939450505050565b60008060408385031215611f0e57600080fd5b611f1783611da4565b915060208301358015158114611f2c57600080fd5b809150509250929050565b634e487b7160e01b600052604160045260246000fd5b604051601f8201601f1916810167ffffffffffffffff81118282101715611f7657611f76611f37565b604052919050565b600067ffffffffffffffff821115611f9857611f98611f37565b5060051b60200190565b60008060408385031215611fb557600080fd5b611fbe83611da4565b915060208084013567ffffffffffffffff811115611fdb57600080fd5b8401601f81018613611fec57600080fd5b8035611fff611ffa82611f7e565b611f4d565b81815260059190911b8201830190838101908883111561201e57600080fd5b928401925b8284101561203c57833582529284019290840190612023565b80955050505050509250929050565b6000806000806080858703121561206157600080fd5b61206a85611da4565b93506020612079818701611da4565b935060408601359250606086013567ffffffffffffffff8082111561209d57600080fd5b818801915088601f8301126120b157600080fd5b8135818111156120c3576120c3611f37565b6120d5601f8201601f19168501611f4d565b915080825289848285010111156120eb57600080fd5b808484018584013760008482840101525080935050505092959194509250565b6000806040838503121561211e57600080fd5b61212783611da4565b915061213560208401611da4565b90509250929050565b6000806020838503121561215157600080fd5b823567ffffffffffffffff81111561216857600080fd5b61217485828601611e63565b90969095509350505050565b600181811c9082168061219457607f821691505b6020821081036121b457634e487b7160e01b600052602260045260246000fd5b50919050565b601f8211156105c257600081815260208120601f850160051c810160208610156121e15750805b601f850160051c820191505b81811015612200578281556001016121ed565b505050505050565b818103612213575050565b61221d8254612180565b67ffffffffffffffff81111561223557612235611f37565b612249816122438454612180565b846121ba565b6000601f82116001811461227d57600083156122655750848201545b600019600385901b1c1916600184901b1784556122e2565b600085815260209020601f19841690600086815260209020845b838110156122b75782860154825560019586019590910190602001612297565b50858310156122d55781850154600019600388901b60f8161c191681555b50505060018360011b0184555b5050505050565b634e487b7160e01b600052603260045260246000fd5b634e487b7160e01b600052601160045260246000fd5b600060018201612327576123276122ff565b5060010190565b604080825284519082018190526000906020906060840190828801845b828110156123705781516001600160a01b03168452928401929084019060010161234b565b505050838103828501528481527f07ffffffffffffffffffffffffffffffffffffffffffffffffffffffffffffff8511156123aa57600080fd5b8460051b808784840137010195945050505050565b600060208083850312156123d257600080fd5b825167ffffffffffffffff8111156123e957600080fd5b8301601f810185136123fa57600080fd5b8051612408611ffa82611f7e565b81815260059190911b8201830190838101908783111561242757600080fd5b928401925b828410156124455783518252928401929084019061242c565b979650505050505050565b60008351612462818460208801611d28565b835190830190612476818360208801611d28565b01949350505050565b60008251612491818460208701611d28565b7f5f00000000000000000000000000000000000000000000000000000000000000920191825250600101919050565b815167ffffffffffffffff8111156124da576124da611f37565b6124e8816122438454612180565b602080601f83116001811461251d57600084156125055750858301515b600019600386901b1c1916600185901b178555612200565b600085815260208120601f198616915b8281101561254c5788860151825594840194600190910190840161252d565b508582101561256a5787850151600019600388901b60f8161c191681555b5050505050600190811b01905550565b60006020828403121561258c57600080fd5b5051919050565b6000835160206125a68285838901611d28565b8184019150600085546125b881612180565b600182811680156125d057600181146125e557612611565b60ff1984168752821515830287019450612611565b896000528560002060005b84811015612609578154898201529083019087016125f0565b505082870194505b50929998505050505050505050565b818103818111156103d2576103d26122ff565b808201808211156103d2576103d26122ff565b634e487b7160e01b600052601260045260246000fd5b60008261266b5761266b612646565b500490565b60008261267f5761267f612646565b500690565b60006001600160a01b038087168352808616602084015250836040830152608060608301526126b66080830184611d4c565b9695505050505050565b6000602082840312156126d257600080fd5b815161101581611cf5565b634e487b7160e01b600052603160045260246000fdfea2646970667358221220a48d111ce64158d5dd9ea6d6bcb12b7ed12dfe11f35e954a90edd5d38e646bdb64736f6c63430008110033",
  "linkReferences": {},
  "deployedLinkReferences": {}
}