{
  "_format": "hh-sol-artifact-1",
  "contractName": "BlergsWeb",
  "sourceName": "contracts/Blergs-web.sol",
  "abi": [
    {
      "inputs": [],
      "stateMutability": "nonpayable",
      "type": "constructor"
    },
    {
      "anonymous": false,
      "inputs": [
        {
          "indexed": true,
          "internalType": "address",
          "name": "owner",
          "type": "address"
        },
        {
          "indexed": true,
          "internalType": "address",
          "name": "approved",
          "type": "address"
        },
        {
          "indexed": true,
          "internalType": "uint256",
          "name": "tokenId",
          "type": "uint256"
        }
      ],
      "name": "Approval",
      "type": "event"
    },
    {
      "anonymous": false,
      "inputs": [
        {
          "indexed": true,
          "internalType": "address",
          "name": "owner",
          "type": "address"
        },
        {
          "indexed": true,
          "internalType": "address",
          "name": "operator",
          "type": "address"
        },
        {
          "indexed": false,
          "internalType": "bool",
          "name": "approved",
          "type": "bool"
        }
      ],
      "name": "ApprovalForAll",
      "type": "event"
    },
    {
      "anonymous": false,
      "inputs": [
        {
          "indexed": true,
          "internalType": "address",
          "name": "from",
          "type": "address"
        },
        {
          "indexed": true,
          "internalType": "address",
          "name": "to",
          "type": "address"
        },
        {
          "indexed": true,
          "internalType": "uint256",
          "name": "tokenId",
          "type": "uint256"
        }
      ],
      "name": "Transfer",
      "type": "event"
    },
    {
      "inputs": [
        {
          "internalType": "address",
          "name": "to",
          "type": "address"
        },
        {
          "internalType": "uint256",
          "name": "tokenId",
          "type": "uint256"
        }
      ],
      "name": "approve",
      "outputs": [],
      "stateMutability": "nonpayable",
      "type": "function"
    },
    {
      "inputs": [
        {
          "internalType": "address",
          "name": "owner",
          "type": "address"
        }
      ],
      "name": "balanceOf",
      "outputs": [
        {
          "internalType": "uint256",
          "name": "",
          "type": "uint256"
        }
      ],
      "stateMutability": "view",
      "type": "function"
    },
    {
      "inputs": [
        {
          "internalType": "uint256",
          "name": "tokenId",
          "type": "uint256"
        }
      ],
      "name": "getApproved",
      "outputs": [
        {
          "internalType": "address",
          "name": "",
          "type": "address"
        }
      ],
      "stateMutability": "view",
      "type": "function"
    },
    {
      "inputs": [
        {
          "internalType": "address",
          "name": "owner",
          "type": "address"
        },
        {
          "internalType": "address",
          "name": "operator",
          "type": "address"
        }
      ],
      "name": "isApprovedForAll",
      "outputs": [
        {
          "internalType": "bool",
          "name": "",
          "type": "bool"
        }
      ],
      "stateMutability": "view",
      "type": "function"
    },
    {
      "inputs": [
        {
          "internalType": "uint256[5]",
          "name": "traits",
          "type": "uint256[5]"
        }
      ],
      "name": "mintWithTraits",
      "outputs": [],
      "stateMutability": "nonpayable",
      "type": "function"
    },
    {
      "inputs": [],
      "name": "name",
      "outputs": [
        {
          "internalType": "string",
          "name": "",
          "type": "string"
        }
      ],
      "stateMutability": "view",
      "type": "function"
    },
    {
      "inputs": [
        {
          "internalType": "uint256",
          "name": "tokenId",
          "type": "uint256"
        }
      ],
      "name": "ownerOf",
      "outputs": [
        {
          "internalType": "address",
          "name": "",
          "type": "address"
        }
      ],
      "stateMutability": "view",
      "type": "function"
    },
    {
      "inputs": [
        {
          "internalType": "address",
          "name": "from",
          "type": "address"
        },
        {
          "internalType": "address",
          "name": "to",
          "type": "address"
        },
        {
          "internalType": "uint256",
          "name": "tokenId",
          "type": "uint256"
        }
      ],
      "name": "safeTransferFrom",
      "outputs": [],
      "stateMutability": "nonpayable",
      "type": "function"
    },
    {
      "inputs": [
        {
          "internalType": "address",
          "name": "from",
          "type": "address"
        },
        {
          "internalType": "address",
          "name": "to",
          "type": "address"
        },
        {
          "internalType": "uint256",
          "name": "tokenId",
          "type": "uint256"
        },
        {
          "internalType": "bytes",
          "name": "data",
          "type": "bytes"
        }
      ],
      "name": "safeTransferFrom",
      "outputs": [],
      "stateMutability": "nonpayable",
      "type": "function"
    },
    {
      "inputs": [
        {
          "internalType": "address",
          "name": "operator",
          "type": "address"
        },
        {
          "internalType": "bool",
          "name": "approved",
          "type": "bool"
        }
      ],
      "name": "setApprovalForAll",
      "outputs": [],
      "stateMutability": "nonpayable",
      "type": "function"
    },
    {
      "inputs": [
        {
          "internalType": "address",
          "name": "traitsAddress",
          "type": "address"
        }
      ],
      "name": "setTraitsAddress",
      "outputs": [],
      "stateMutability": "nonpayable",
      "type": "function"
    },
    {
      "inputs": [
        {
          "internalType": "bytes4",
          "name": "interfaceId",
          "type": "bytes4"
        }
      ],
      "name": "supportsInterface",
      "outputs": [
        {
          "internalType": "bool",
          "name": "",
          "type": "bool"
        }
      ],
      "stateMutability": "view",
      "type": "function"
    },
    {
      "inputs": [],
      "name": "symbol",
      "outputs": [
        {
          "internalType": "string",
          "name": "",
          "type": "string"
        }
      ],
      "stateMutability": "view",
      "type": "function"
    },
    {
      "inputs": [
        {
          "internalType": "uint256",
          "name": "index",
          "type": "uint256"
        }
      ],
      "name": "tokenByIndex",
      "outputs": [
        {
          "internalType": "uint256",
          "name": "",
          "type": "uint256"
        }
      ],
      "stateMutability": "view",
      "type": "function"
    },
    {
      "inputs": [
        {
          "internalType": "address",
          "name": "owner",
          "type": "address"
        },
        {
          "internalType": "uint256",
          "name": "index",
          "type": "uint256"
        }
      ],
      "name": "tokenOfOwnerByIndex",
      "outputs": [
        {
          "internalType": "uint256",
          "name": "",
          "type": "uint256"
        }
      ],
      "stateMutability": "view",
      "type": "function"
    },
    {
      "inputs": [
        {
          "internalType": "uint256",
          "name": "tokenId",
          "type": "uint256"
        }
      ],
      "name": "tokenURI",
      "outputs": [
        {
          "internalType": "string",
          "name": "",
          "type": "string"
        }
      ],
      "stateMutability": "view",
      "type": "function"
    },
    {
      "inputs": [],
      "name": "totalSupply",
      "outputs": [
        {
          "internalType": "uint256",
          "name": "",
          "type": "uint256"
        }
      ],
      "stateMutability": "view",
      "type": "function"
    },
    {
      "inputs": [
        {
          "internalType": "address",
          "name": "from",
          "type": "address"
        },
        {
          "internalType": "address",
          "name": "to",
          "type": "address"
        },
        {
          "internalType": "uint256",
          "name": "tokenId",
          "type": "uint256"
        }
      ],
      "name": "transferFrom",
      "outputs": [],
      "stateMutability": "nonpayable",
      "type": "function"
    }
  ],
  "bytecode": "0x60806040523480156200001157600080fd5b5060405180604001604052806003815260200162426c2d60e81b81525060405180604001604052806003815260200162212b1960e91b81525081600090816200005b919062000118565b5060016200006a828262000118565b505050620001e4565b634e487b7160e01b600052604160045260246000fd5b600181811c908216806200009e57607f821691505b602082108103620000bf57634e487b7160e01b600052602260045260246000fd5b50919050565b601f8211156200011357600081815260208120601f850160051c81016020861015620000ee5750805b601f850160051c820191505b818110156200010f57828155600101620000fa565b5050505b505050565b81516001600160401b0381111562000134576200013462000073565b6200014c8162000145845462000089565b84620000c5565b602080601f8311600181146200018457600084156200016b5750858301515b600019600386901b1c1916600185901b1785556200010f565b600085815260208120601f198616915b82811015620001b55788860151825594840194600190910190840162000194565b5085821015620001d45787850151600019600388901b60f8161c191681555b5050505050600190811b01905550565b611b4580620001f46000396000f3fe608060405234801561001057600080fd5b50600436106101365760003560e01c80634f6ccce7116100b257806395d89b4111610081578063b88d4fde11610066578063b88d4fde146102a7578063c87b56dd146102ba578063e985e9c5146102cd57600080fd5b806395d89b411461028c578063a22cb4651461029457600080fd5b80634f6ccce7146102165780636352211e1461022957806370a082311461023c5780638affb4851461024f57600080fd5b806318160ddd116101095780632f745c59116100ee5780632f745c59146101dd5780633852d7de146101f057806342842e0e1461020357600080fd5b806318160ddd146101b857806323b872dd146101ca57600080fd5b806301ffc9a71461013b57806306fdde0314610163578063081812fc14610178578063095ea7b3146101a3575b600080fd5b61014e6101493660046115e3565b610309565b60405190151581526020015b60405180910390f35b61016b61031a565b60405161015a9190611650565b61018b610186366004611663565b6103ac565b6040516001600160a01b03909116815260200161015a565b6101b66101b1366004611698565b6103d3565b005b6008545b60405190815260200161015a565b6101b66101d83660046116c2565b610509565b6101bc6101eb366004611698565b610590565b6101b66101fe3660046116fe565b610638565b6101b66102113660046116c2565b6107ed565b6101bc610224366004611663565b610808565b61018b610237366004611663565b6108ac565b6101bc61024a366004611726565b610911565b6101b661025d366004611726565b600b805473ffffffffffffffffffffffffffffffffffffffff19166001600160a01b0392909216919091179055565b61016b6109ab565b6101b66102a2366004611741565b6109ba565b6101b66102b53660046117c4565b6109c9565b61016b6102c8366004611663565b610a51565b61014e6102db366004611884565b6001600160a01b03918216600090815260056020908152604080832093909416825291909152205460ff1690565b600061031482610ab0565b92915050565b606060008054610329906118b7565b80601f0160208091040260200160405190810160405280929190818152602001828054610355906118b7565b80156103a25780601f10610377576101008083540402835291602001916103a2565b820191906000526020600020905b81548152906001019060200180831161038557829003601f168201915b5050505050905090565b60006103b782610aee565b506000908152600460205260409020546001600160a01b031690565b60006103de826108ac565b9050806001600160a01b0316836001600160a01b03160361046c5760405162461bcd60e51b815260206004820152602160248201527f4552433732313a20617070726f76616c20746f2063757272656e74206f776e6560448201527f720000000000000000000000000000000000000000000000000000000000000060648201526084015b60405180910390fd5b336001600160a01b0382161480610488575061048881336102db565b6104fa5760405162461bcd60e51b815260206004820152603e60248201527f4552433732313a20617070726f76652063616c6c6572206973206e6f7420746f60448201527f6b656e206f776e6572206e6f7220617070726f76656420666f7220616c6c00006064820152608401610463565b6105048383610b55565b505050565b6105133382610bd0565b6105855760405162461bcd60e51b815260206004820152602e60248201527f4552433732313a2063616c6c6572206973206e6f7420746f6b656e206f776e6560448201527f72206e6f7220617070726f7665640000000000000000000000000000000000006064820152608401610463565b610504838383610c4f565b600061059b83610911565b821061060f5760405162461bcd60e51b815260206004820152602b60248201527f455243373231456e756d657261626c653a206f776e657220696e646578206f7560448201527f74206f6620626f756e64730000000000000000000000000000000000000000006064820152608401610463565b506001600160a01b03919091166000908152600660209081526040808320938352929052205490565b6000610643600a5490565b60408051600580825260c08201909252919250600091906020820160a08036833701905050905060005b81518110156106b35733828281518110610689576106896118eb565b6001600160a01b0390921660209283029190910190910152806106ab81611917565b91505061066d565b50600b546040517f30679e4e0000000000000000000000000000000000000000000000000000000081526000916001600160a01b0316906330679e4e906107009085908890600401611930565b600060405180830381865afa15801561071d573d6000803e3d6000fd5b505050506040513d6000823e601f3d908101601f191682016040526107459190810190611988565b905060005b81518110156107ce576000828281518110610767576107676118eb565b6020026020010151116107bc5760405162461bcd60e51b815260206004820152600d60248201527f4d697373696e67205472616974000000000000000000000000000000000000006044820152606401610463565b806107c681611917565b91505061074a565b506107d93384610e34565b6107e7600a80546001019055565b50505050565b610504838383604051806020016040528060008152506109c9565b600061081360085490565b82106108875760405162461bcd60e51b815260206004820152602c60248201527f455243373231456e756d657261626c653a20676c6f62616c20696e646578206f60448201527f7574206f6620626f756e647300000000000000000000000000000000000000006064820152608401610463565b6008828154811061089a5761089a6118eb565b90600052602060002001549050919050565b6000818152600260205260408120546001600160a01b0316806103145760405162461bcd60e51b815260206004820152601860248201527f4552433732313a20696e76616c696420746f6b656e20494400000000000000006044820152606401610463565b60006001600160a01b03821661098f5760405162461bcd60e51b815260206004820152602960248201527f4552433732313a2061646472657373207a65726f206973206e6f74206120766160448201527f6c6964206f776e657200000000000000000000000000000000000000000000006064820152608401610463565b506001600160a01b031660009081526003602052604090205490565b606060018054610329906118b7565b6109c5338383610e4e565b5050565b6109d33383610bd0565b610a455760405162461bcd60e51b815260206004820152602e60248201527f4552433732313a2063616c6c6572206973206e6f7420746f6b656e206f776e6560448201527f72206e6f7220617070726f7665640000000000000000000000000000000000006064820152608401610463565b6107e784848484610f1c565b6060610a5c82610aee565b6000610a66610f9a565b90506000815111610a865760405180602001604052806000815250610aa9565b8083604051602001610a99929190611a2e565b6040516020818303038152906040525b9392505050565b60006001600160e01b031982167f780e9d63000000000000000000000000000000000000000000000000000000001480610314575061031482610fba565b6000818152600260205260409020546001600160a01b0316610b525760405162461bcd60e51b815260206004820152601860248201527f4552433732313a20696e76616c696420746f6b656e20494400000000000000006044820152606401610463565b50565b6000818152600460205260409020805473ffffffffffffffffffffffffffffffffffffffff19166001600160a01b0384169081179091558190610b97826108ac565b6001600160a01b03167f8c5be1e5ebec7d5bd14f71427d1e84f3dd0314c0f7b2291e5b200ac8c7c3b92560405160405180910390a45050565b600080610bdc836108ac565b9050806001600160a01b0316846001600160a01b03161480610c2357506001600160a01b0380821660009081526005602090815260408083209388168352929052205460ff165b80610c475750836001600160a01b0316610c3c846103ac565b6001600160a01b0316145b949350505050565b826001600160a01b0316610c62826108ac565b6001600160a01b031614610cde5760405162461bcd60e51b815260206004820152602560248201527f4552433732313a207472616e736665722066726f6d20696e636f72726563742060448201527f6f776e65720000000000000000000000000000000000000000000000000000006064820152608401610463565b6001600160a01b038216610d595760405162461bcd60e51b8152602060048201526024808201527f4552433732313a207472616e7366657220746f20746865207a65726f2061646460448201527f72657373000000000000000000000000000000000000000000000000000000006064820152608401610463565b610d64838383611055565b610d6f600082610b55565b6001600160a01b0383166000908152600360205260408120805460019290610d98908490611a50565b90915550506001600160a01b0382166000908152600360205260408120805460019290610dc6908490611a63565b9091555050600081815260026020526040808220805473ffffffffffffffffffffffffffffffffffffffff19166001600160a01b0386811691821790925591518493918716917fddf252ad1be2c89b69c2b068fc378daa952ba7f163c4a11628f55a4df523b3ef91a4505050565b6109c5828260405180602001604052806000815250611060565b816001600160a01b0316836001600160a01b031603610eaf5760405162461bcd60e51b815260206004820152601960248201527f4552433732313a20617070726f766520746f2063616c6c6572000000000000006044820152606401610463565b6001600160a01b03838116600081815260056020908152604080832094871680845294825291829020805460ff191686151590811790915591519182527f17307eab39ab6107e8899845ad3d59bd9653f200f220920489ca2b5937696c31910160405180910390a3505050565b610f27848484610c4f565b610f33848484846110de565b6107e75760405162461bcd60e51b815260206004820152603260248201527f4552433732313a207472616e7366657220746f206e6f6e20455243373231526560448201527131b2b4bb32b91034b6b83632b6b2b73a32b960711b6064820152608401610463565b60606040518060600160405280602a8152602001611ae6602a9139905090565b60006001600160e01b031982167f80ac58cd00000000000000000000000000000000000000000000000000000000148061101d57506001600160e01b031982167f5b5e139f00000000000000000000000000000000000000000000000000000000145b8061031457507f01ffc9a7000000000000000000000000000000000000000000000000000000006001600160e01b0319831614610314565b61050483838361122a565b61106a83836112e2565b61107760008484846110de565b6105045760405162461bcd60e51b815260206004820152603260248201527f4552433732313a207472616e7366657220746f206e6f6e20455243373231526560448201527131b2b4bb32b91034b6b83632b6b2b73a32b960711b6064820152608401610463565b60006001600160a01b0384163b1561121f57604051630a85bd0160e11b81526001600160a01b0385169063150b7a0290611122903390899088908890600401611a76565b6020604051808303816000875af192505050801561115d575060408051601f3d908101601f1916820190925261115a91810190611ab2565b60015b611205573d80801561118b576040519150601f19603f3d011682016040523d82523d6000602084013e611190565b606091505b5080516000036111fd5760405162461bcd60e51b815260206004820152603260248201527f4552433732313a207472616e7366657220746f206e6f6e20455243373231526560448201527131b2b4bb32b91034b6b83632b6b2b73a32b960711b6064820152608401610463565b805181602001fd5b6001600160e01b031916630a85bd0160e11b149050610c47565b506001949350505050565b6001600160a01b0383166112855761128081600880546000838152600960205260408120829055600182018355919091527ff3f7a9fe364faab93b216da50a3214154f22a0a2b415b23a84c8169e8b636ee30155565b6112a8565b816001600160a01b0316836001600160a01b0316146112a8576112a8838261143d565b6001600160a01b0382166112bf57610504816114da565b826001600160a01b0316826001600160a01b031614610504576105048282611589565b6001600160a01b0382166113385760405162461bcd60e51b815260206004820181905260248201527f4552433732313a206d696e7420746f20746865207a65726f20616464726573736044820152606401610463565b6000818152600260205260409020546001600160a01b03161561139d5760405162461bcd60e51b815260206004820152601c60248201527f4552433732313a20746f6b656e20616c7265616479206d696e746564000000006044820152606401610463565b6113a960008383611055565b6001600160a01b03821660009081526003602052604081208054600192906113d2908490611a63565b9091555050600081815260026020526040808220805473ffffffffffffffffffffffffffffffffffffffff19166001600160a01b03861690811790915590518392907fddf252ad1be2c89b69c2b068fc378daa952ba7f163c4a11628f55a4df523b3ef908290a45050565b6000600161144a84610911565b6114549190611a50565b6000838152600760205260409020549091508082146114a7576001600160a01b03841660009081526006602090815260408083208584528252808320548484528184208190558352600790915290208190555b5060009182526007602090815260408084208490556001600160a01b039094168352600681528383209183525290812055565b6008546000906114ec90600190611a50565b60008381526009602052604081205460088054939450909284908110611514576115146118eb565b906000526020600020015490508060088381548110611535576115356118eb565b600091825260208083209091019290925582815260099091526040808220849055858252812055600880548061156d5761156d611acf565b6001900381819060005260206000200160009055905550505050565b600061159483610911565b6001600160a01b039093166000908152600660209081526040808320868452825280832085905593825260079052919091209190915550565b6001600160e01b031981168114610b5257600080fd5b6000602082840312156115f557600080fd5b8135610aa9816115cd565b60005b8381101561161b578181015183820152602001611603565b50506000910152565b6000815180845261163c816020860160208601611600565b601f01601f19169290920160200192915050565b602081526000610aa96020830184611624565b60006020828403121561167557600080fd5b5035919050565b80356001600160a01b038116811461169357600080fd5b919050565b600080604083850312156116ab57600080fd5b6116b48361167c565b946020939093013593505050565b6000806000606084860312156116d757600080fd5b6116e08461167c565b92506116ee6020850161167c565b9150604084013590509250925092565b600060a0828403121561171057600080fd5b8260a08301111561172057600080fd5b50919050565b60006020828403121561173857600080fd5b610aa98261167c565b6000806040838503121561175457600080fd5b61175d8361167c565b91506020830135801515811461177257600080fd5b809150509250929050565b634e487b7160e01b600052604160045260246000fd5b604051601f8201601f1916810167ffffffffffffffff811182821017156117bc576117bc61177d565b604052919050565b600080600080608085870312156117da57600080fd5b6117e38561167c565b935060206117f281870161167c565b935060408601359250606086013567ffffffffffffffff8082111561181657600080fd5b818801915088601f83011261182a57600080fd5b81358181111561183c5761183c61177d565b61184e601f8201601f19168501611793565b9150808252898482850101111561186457600080fd5b808484018584013760008482840101525080935050505092959194509250565b6000806040838503121561189757600080fd5b6118a08361167c565b91506118ae6020840161167c565b90509250929050565b600181811c908216806118cb57607f821691505b60208210810361172057634e487b7160e01b600052602260045260246000fd5b634e487b7160e01b600052603260045260246000fd5b634e487b7160e01b600052601160045260246000fd5b60006001820161192957611929611901565b5060010190565b60c0808252835190820181905260009060209060e0840190828701845b828110156119725781516001600160a01b03168452928401929084019060010161194d565b5050508092505060a08482850137509392505050565b6000602080838503121561199b57600080fd5b825167ffffffffffffffff808211156119b357600080fd5b818501915085601f8301126119c757600080fd5b8151818111156119d9576119d961177d565b8060051b91506119ea848301611793565b8181529183018401918481019088841115611a0457600080fd5b938501935b83851015611a2257845182529385019390850190611a09565b98975050505050505050565b60008351611a40818460208801611600565b9190910191825250602001919050565b8181038181111561031457610314611901565b8082018082111561031457610314611901565b60006001600160a01b03808716835280861660208401525083604083015260806060830152611aa86080830184611624565b9695505050505050565b600060208284031215611ac457600080fd5b8151610aa9816115cd565b634e487b7160e01b600052603160045260246000fdfe68747470733a2f2f626c6572672d76322d6d76702e76657263656c2e6170702f6170692f626c6572672fa2646970667358221220e3d8e03a5ddd9ac76cb0ffa008a26ef0f93507537fed7d3c87e499f3179dc61264736f6c63430008110033",
  "linkReferences": {},
  "deployedLinkReferences": {}
}