{
  "_format": "hh-sol-artifact-1",
  "contractName": "Blergs",
  "sourceName": "contracts/Blergs.sol",
  "abi": [
    {
      "inputs": [],
      "stateMutability": "nonpayable",
      "type": "constructor"
    },
    {
      "anonymous": false,
      "inputs": [
        {
          "indexed": true,
          "internalType": "address",
          "name": "owner",
          "type": "address"
        },
        {
          "indexed": true,
          "internalType": "address",
          "name": "approved",
          "type": "address"
        },
        {
          "indexed": true,
          "internalType": "uint256",
          "name": "tokenId",
          "type": "uint256"
        }
      ],
      "name": "Approval",
      "type": "event"
    },
    {
      "anonymous": false,
      "inputs": [
        {
          "indexed": true,
          "internalType": "address",
          "name": "owner",
          "type": "address"
        },
        {
          "indexed": true,
          "internalType": "address",
          "name": "operator",
          "type": "address"
        },
        {
          "indexed": false,
          "internalType": "bool",
          "name": "approved",
          "type": "bool"
        }
      ],
      "name": "ApprovalForAll",
      "type": "event"
    },
    {
      "anonymous": false,
      "inputs": [
        {
          "indexed": true,
          "internalType": "address",
          "name": "from",
          "type": "address"
        },
        {
          "indexed": true,
          "internalType": "address",
          "name": "to",
          "type": "address"
        },
        {
          "indexed": true,
          "internalType": "uint256",
          "name": "tokenId",
          "type": "uint256"
        }
      ],
      "name": "Transfer",
      "type": "event"
    },
    {
      "inputs": [
        {
          "internalType": "address",
          "name": "to",
          "type": "address"
        },
        {
          "internalType": "uint256",
          "name": "tokenId",
          "type": "uint256"
        }
      ],
      "name": "approve",
      "outputs": [],
      "stateMutability": "nonpayable",
      "type": "function"
    },
    {
      "inputs": [
        {
          "internalType": "uint256",
          "name": "",
          "type": "uint256"
        }
      ],
      "name": "artworkRef",
      "outputs": [
        {
          "internalType": "string",
          "name": "",
          "type": "string"
        }
      ],
      "stateMutability": "view",
      "type": "function"
    },
    {
      "inputs": [
        {
          "internalType": "address",
          "name": "owner",
          "type": "address"
        }
      ],
      "name": "balanceOf",
      "outputs": [
        {
          "internalType": "uint256",
          "name": "",
          "type": "uint256"
        }
      ],
      "stateMutability": "view",
      "type": "function"
    },
    {
      "inputs": [],
      "name": "blankBlergRef",
      "outputs": [
        {
          "internalType": "string",
          "name": "",
          "type": "string"
        }
      ],
      "stateMutability": "view",
      "type": "function"
    },
    {
      "inputs": [
        {
          "internalType": "uint256",
          "name": "",
          "type": "uint256"
        },
        {
          "internalType": "uint256",
          "name": "",
          "type": "uint256"
        }
      ],
      "name": "blergTraits",
      "outputs": [
        {
          "internalType": "uint256",
          "name": "",
          "type": "uint256"
        }
      ],
      "stateMutability": "view",
      "type": "function"
    },
    {
      "inputs": [
        {
          "internalType": "uint256",
          "name": "tokenId",
          "type": "uint256"
        }
      ],
      "name": "getApproved",
      "outputs": [
        {
          "internalType": "address",
          "name": "",
          "type": "address"
        }
      ],
      "stateMutability": "view",
      "type": "function"
    },
    {
      "inputs": [
        {
          "internalType": "address",
          "name": "owner",
          "type": "address"
        },
        {
          "internalType": "address",
          "name": "operator",
          "type": "address"
        }
      ],
      "name": "isApprovedForAll",
      "outputs": [
        {
          "internalType": "bool",
          "name": "",
          "type": "bool"
        }
      ],
      "stateMutability": "view",
      "type": "function"
    },
    {
      "inputs": [],
      "name": "mint",
      "outputs": [],
      "stateMutability": "nonpayable",
      "type": "function"
    },
    {
      "inputs": [
        {
          "internalType": "uint256[]",
          "name": "traits",
          "type": "uint256[]"
        }
      ],
      "name": "mintWithTraits",
      "outputs": [],
      "stateMutability": "nonpayable",
      "type": "function"
    },
    {
      "inputs": [],
      "name": "name",
      "outputs": [
        {
          "internalType": "string",
          "name": "",
          "type": "string"
        }
      ],
      "stateMutability": "view",
      "type": "function"
    },
    {
      "inputs": [
        {
          "internalType": "address",
          "name": "from",
          "type": "address"
        },
        {
          "internalType": "uint256[]",
          "name": "traitIds",
          "type": "uint256[]"
        }
      ],
      "name": "onTraitTransfer",
      "outputs": [],
      "stateMutability": "nonpayable",
      "type": "function"
    },
    {
      "inputs": [
        {
          "internalType": "uint256",
          "name": "tokenId",
          "type": "uint256"
        }
      ],
      "name": "ownerOf",
      "outputs": [
        {
          "internalType": "address",
          "name": "",
          "type": "address"
        }
      ],
      "stateMutability": "view",
      "type": "function"
    },
    {
      "inputs": [
        {
          "internalType": "address",
          "name": "from",
          "type": "address"
        },
        {
          "internalType": "address",
          "name": "to",
          "type": "address"
        },
        {
          "internalType": "uint256",
          "name": "tokenId",
          "type": "uint256"
        }
      ],
      "name": "safeTransferFrom",
      "outputs": [],
      "stateMutability": "nonpayable",
      "type": "function"
    },
    {
      "inputs": [
        {
          "internalType": "address",
          "name": "from",
          "type": "address"
        },
        {
          "internalType": "address",
          "name": "to",
          "type": "address"
        },
        {
          "internalType": "uint256",
          "name": "tokenId",
          "type": "uint256"
        },
        {
          "internalType": "bytes",
          "name": "data",
          "type": "bytes"
        }
      ],
      "name": "safeTransferFrom",
      "outputs": [],
      "stateMutability": "nonpayable",
      "type": "function"
    },
    {
      "inputs": [
        {
          "internalType": "address",
          "name": "operator",
          "type": "address"
        },
        {
          "internalType": "bool",
          "name": "approved",
          "type": "bool"
        }
      ],
      "name": "setApprovalForAll",
      "outputs": [],
      "stateMutability": "nonpayable",
      "type": "function"
    },
    {
      "inputs": [
        {
          "internalType": "uint256",
          "name": "tokenId",
          "type": "uint256"
        },
        {
          "internalType": "uint256[]",
          "name": "traits",
          "type": "uint256[]"
        }
      ],
      "name": "setTraits",
      "outputs": [],
      "stateMutability": "nonpayable",
      "type": "function"
    },
    {
      "inputs": [
        {
          "internalType": "address",
          "name": "traitsAddress",
          "type": "address"
        }
      ],
      "name": "setTraitsAddress",
      "outputs": [],
      "stateMutability": "nonpayable",
      "type": "function"
    },
    {
      "inputs": [
        {
          "internalType": "bytes4",
          "name": "interfaceId",
          "type": "bytes4"
        }
      ],
      "name": "supportsInterface",
      "outputs": [
        {
          "internalType": "bool",
          "name": "",
          "type": "bool"
        }
      ],
      "stateMutability": "view",
      "type": "function"
    },
    {
      "inputs": [],
      "name": "symbol",
      "outputs": [
        {
          "internalType": "string",
          "name": "",
          "type": "string"
        }
      ],
      "stateMutability": "view",
      "type": "function"
    },
    {
      "inputs": [
        {
          "internalType": "uint256",
          "name": "index",
          "type": "uint256"
        }
      ],
      "name": "tokenByIndex",
      "outputs": [
        {
          "internalType": "uint256",
          "name": "",
          "type": "uint256"
        }
      ],
      "stateMutability": "view",
      "type": "function"
    },
    {
      "inputs": [
        {
          "internalType": "address",
          "name": "owner",
          "type": "address"
        },
        {
          "internalType": "uint256",
          "name": "index",
          "type": "uint256"
        }
      ],
      "name": "tokenOfOwnerByIndex",
      "outputs": [
        {
          "internalType": "uint256",
          "name": "",
          "type": "uint256"
        }
      ],
      "stateMutability": "view",
      "type": "function"
    },
    {
      "inputs": [
        {
          "internalType": "uint256",
          "name": "tokenId",
          "type": "uint256"
        }
      ],
      "name": "tokenURI",
      "outputs": [
        {
          "internalType": "string",
          "name": "",
          "type": "string"
        }
      ],
      "stateMutability": "view",
      "type": "function"
    },
    {
      "inputs": [],
      "name": "totalSupply",
      "outputs": [
        {
          "internalType": "uint256",
          "name": "",
          "type": "uint256"
        }
      ],
      "stateMutability": "view",
      "type": "function"
    },
    {
      "inputs": [
        {
          "internalType": "address",
          "name": "from",
          "type": "address"
        },
        {
          "internalType": "address",
          "name": "to",
          "type": "address"
        },
        {
          "internalType": "uint256",
          "name": "tokenId",
          "type": "uint256"
        }
      ],
      "name": "transferFrom",
      "outputs": [],
      "stateMutability": "nonpayable",
      "type": "function"
    }
  ],
  "bytecode": "0x60c060405260046080908152630303030360e41b60a052600b906200002590826200013a565b503480156200003357600080fd5b5060405180604001604052806003815260200162426c2d60e81b81525060405180604001604052806003815260200162212b1960e91b81525081600090816200007d91906200013a565b5060016200008c82826200013a565b50505062000206565b634e487b7160e01b600052604160045260246000fd5b600181811c90821680620000c057607f821691505b602082108103620000e157634e487b7160e01b600052602260045260246000fd5b50919050565b601f8211156200013557600081815260208120601f850160051c81016020861015620001105750805b601f850160051c820191505b8181101562000131578281556001016200011c565b5050505b505050565b81516001600160401b0381111562000156576200015662000095565b6200016e81620001678454620000ab565b84620000e7565b602080601f831160018114620001a657600084156200018d5750858301515b600019600386901b1c1916600185901b17855562000131565b600085815260208120601f198616915b82811015620001d757888601518255948401946001909101908401620001b6565b5085821015620001f65787850151600019600388901b60f8161c191681555b5050505050600190811b01905550565b6126df80620002166000396000f3fe608060405234801561001057600080fd5b50600436106101985760003560e01c80636ffcf4cd116100e3578063a22cb4651161008c578063c87b56dd11610066578063c87b56dd14610365578063e985e9c514610378578063efb1c51f146103b457600080fd5b8063a22cb4651461032c578063a5ee45831461033f578063b88d4fde1461035257600080fd5b806388d210f0116100bd57806388d210f0146102d45780638affb485146102e757806395d89b411461032457600080fd5b80636ffcf4cd1461029b57806370a08231146102ae57806371150bce146102c157600080fd5b806323b872dd1161014557806342842e0e1161011f57806342842e0e146102625780634f6ccce7146102755780636352211e1461028857600080fd5b806323b872dd146102345780632f745c59146102475780633354c8631461025a57600080fd5b8063095ea7b311610176578063095ea7b3146102055780631249c58b1461021a57806318160ddd1461022257600080fd5b806301ffc9a71461019d57806306fdde03146101c5578063081812fc146101da575b600080fd5b6101b06101ab366004611cc1565b6103c7565b60405190151581526020015b60405180910390f35b6101cd6103d8565b6040516101bc9190611d2e565b6101ed6101e8366004611d41565b61046a565b6040516001600160a01b0390911681526020016101bc565b610218610213366004611d76565b610491565b005b6102186105c7565b6008545b6040519081526020016101bc565b610218610242366004611da0565b610609565b610226610255366004611d76565b610690565b6101cd610738565b610218610270366004611da0565b6107c6565b610226610283366004611d41565b6107e1565b6101ed610296366004611d41565b610885565b6102266102a9366004611ddc565b6108ea565b6102266102bc366004611dfe565b61091b565b6101cd6102cf366004611d41565b6109b5565b6102186102e2366004611e65565b6109ce565b6102186102f5366004611dfe565b600c805473ffffffffffffffffffffffffffffffffffffffff19166001600160a01b0392909216919091179055565b6101cd610ce6565b61021861033a366004611eb1565b610cf5565b61021861034d366004611f58565b610d04565b610218610360366004612001565b610ea7565b6101cd610373366004611d41565b610f2f565b6101b06103863660046120c1565b6001600160a01b03918216600090815260056020908152604080832093909416825291909152205460ff1690565b6102186103c23660046120f4565b610fd2565b60006103d282611002565b92915050565b6060600080546103e790612136565b80601f016020809104026020016040519081016040528092919081815260200182805461041390612136565b80156104605780601f1061043557610100808354040283529160200191610460565b820191906000526020600020905b81548152906001019060200180831161044357829003601f168201915b5050505050905090565b600061047582611040565b506000908152600460205260409020546001600160a01b031690565b600061049c82610885565b9050806001600160a01b0316836001600160a01b03160361052a5760405162461bcd60e51b815260206004820152602160248201527f4552433732313a20617070726f76616c20746f2063757272656e74206f776e6560448201527f720000000000000000000000000000000000000000000000000000000000000060648201526084015b60405180910390fd5b336001600160a01b038216148061054657506105468133610386565b6105b85760405162461bcd60e51b815260206004820152603e60248201527f4552433732313a20617070726f76652063616c6c6572206973206e6f7420746f60448201527f6b656e206f776e6572206e6f7220617070726f76656420666f7220616c6c00006064820152608401610521565b6105c283836110a4565b505050565b60006105d2600a5490565b90506105de338261111f565b6000818152600d602052604090206105f7600b826121be565b50610606600a80546001019055565b50565b6106133382611139565b6106855760405162461bcd60e51b815260206004820152602e60248201527f4552433732313a2063616c6c6572206973206e6f7420746f6b656e206f776e6560448201527f72206e6f7220617070726f7665640000000000000000000000000000000000006064820152608401610521565b6105c28383836111b8565b600061069b8361091b565b821061070f5760405162461bcd60e51b815260206004820152602b60248201527f455243373231456e756d657261626c653a206f776e657220696e646578206f7560448201527f74206f6620626f756e64730000000000000000000000000000000000000000006064820152608401610521565b506001600160a01b03919091166000908152600660209081526040808320938352929052205490565b600b805461074590612136565b80601f016020809104026020016040519081016040528092919081815260200182805461077190612136565b80156107be5780601f10610793576101008083540402835291602001916107be565b820191906000526020600020905b8154815290600101906020018083116107a157829003601f168201915b505050505081565b6105c283838360405180602001604052806000815250610ea7565b60006107ec60085490565b82106108605760405162461bcd60e51b815260206004820152602c60248201527f455243373231456e756d657261626c653a20676c6f62616c20696e646578206f60448201527f7574206f6620626f756e647300000000000000000000000000000000000000006064820152608401610521565b600882815481106108735761087361229f565b90600052602060002001549050919050565b6000818152600260205260408120546001600160a01b0316806103d25760405162461bcd60e51b815260206004820152601860248201527f4552433732313a20696e76616c696420746f6b656e20494400000000000000006044820152606401610521565b600e602052816000526040600020818154811061090657600080fd5b90600052602060002001600091509150505481565b60006001600160a01b0382166109995760405162461bcd60e51b815260206004820152602960248201527f4552433732313a2061646472657373207a65726f206973206e6f74206120766160448201527f6c6964206f776e657200000000000000000000000000000000000000000000006064820152608401610521565b506001600160a01b031660009081526003602052604090205490565b600d602052600090815260409020805461074590612136565b336109d884610885565b6001600160a01b031614610a2e5760405162461bcd60e51b815260206004820152601260248201527f4d757374204f776e2054686520426c65726700000000000000000000000000006044820152606401610521565b60408051600580825260c082019092526000916020820160a08036833701905050905060005b8151811015610a9a5733828281518110610a7057610a7061229f565b6001600160a01b039092166020928302919091019091015280610a92816122cb565b915050610a54565b50600c546040517f4e1273f40000000000000000000000000000000000000000000000000000000081526000916001600160a01b031690634e1273f490610ae9908590889088906004016122e4565b600060405180830381865afa158015610b06573d6000803e3d6000fd5b505050506040513d6000823e601f3d908101601f19168201604052610b2e9190810190612375565b60408051602081019091526000808252919250905b8251811015610c2e576000838281518110610b6057610b6061229f565b602002602001015111610bb55760405162461bcd60e51b815260206004820152600d60248201527f4d697373696e67205472616974000000000000000000000000000000000000006044820152606401610521565b81610bd7878784818110610bcb57610bcb61229f565b9050602002013561139d565b604051602001610be8929190612406565b604051602081830303815290604052915081604051602001610c0a9190612435565b60405160208183030381529060405291508080610c26906122cb565b915050610b43565b506000868152600d60205260409020610c478282612476565b506000868152600e60205260409020610c61908686611c4b565b50600c546040517f31b0795c0000000000000000000000000000000000000000000000000000000081523060048201523360248201526001600160a01b03909116906331b0795c90604401600060405180830381600087803b158015610cc657600080fd5b505af1158015610cda573d6000803e3d6000fd5b50505050505050505050565b6060600180546103e790612136565b610d003383836114d2565b5050565b6000610d0f8361091b565b905060005b81811015610ea1576000610d288583610690565b905060005b8451811015610e8c5760005b6000838152600e6020526040902054811015610e7957858281518110610d6157610d6161229f565b6020026020010151600e60008581526020019081526020016000208281548110610d8d57610d8d61229f565b9060005260206000200154148015610e475750600c5486516002916001600160a01b03169062fdd58e908a908a9087908110610dcb57610dcb61229f565b60200260200101516040518363ffffffff1660e01b8152600401610e049291906001600160a01b03929092168252602082015260400190565b602060405180830381865afa158015610e21573d6000803e3d6000fd5b505050506040513d601f19601f82011682018060405250810190610e459190612530565b105b15610e67576000838152600d60205260409020610e65600b826121be565b505b80610e71816122cb565b915050610d39565b5080610e84816122cb565b915050610d2d565b50508080610e99906122cb565b915050610d14565b50505050565b610eb13383611139565b610f235760405162461bcd60e51b815260206004820152602e60248201527f4552433732313a2063616c6c6572206973206e6f7420746f6b656e206f776e6560448201527f72206e6f7220617070726f7665640000000000000000000000000000000000006064820152608401610521565b610ea1848484846115a0565b6060610f3a82611040565b6000610f7660408051808201909152600681527f7572693a2f2f0000000000000000000000000000000000000000000000000000602082015290565b90506000815111610f965760405180602001604052806000815250610fcb565b80600d6000858152602001908152602001600020604051602001610fbb929190612549565b6040516020818303038152906040525b9392505050565b6000610fdd600a5490565b9050610fe9338261111f565b610ff48184846109ce565b6105c2600a80546001019055565b60006001600160e01b031982167f780e9d630000000000000000000000000000000000000000000000000000000014806103d257506103d28261161e565b6000818152600260205260409020546001600160a01b03166106065760405162461bcd60e51b815260206004820152601860248201527f4552433732313a20696e76616c696420746f6b656e20494400000000000000006044820152606401610521565b6000818152600460205260409020805473ffffffffffffffffffffffffffffffffffffffff19166001600160a01b03841690811790915581906110e682610885565b6001600160a01b03167f8c5be1e5ebec7d5bd14f71427d1e84f3dd0314c0f7b2291e5b200ac8c7c3b92560405160405180910390a45050565b610d008282604051806020016040528060008152506116b9565b60008061114583610885565b9050806001600160a01b0316846001600160a01b0316148061118c57506001600160a01b0380821660009081526005602090815260408083209388168352929052205460ff165b806111b05750836001600160a01b03166111a58461046a565b6001600160a01b0316145b949350505050565b826001600160a01b03166111cb82610885565b6001600160a01b0316146112475760405162461bcd60e51b815260206004820152602560248201527f4552433732313a207472616e736665722066726f6d20696e636f72726563742060448201527f6f776e65720000000000000000000000000000000000000000000000000000006064820152608401610521565b6001600160a01b0382166112c25760405162461bcd60e51b8152602060048201526024808201527f4552433732313a207472616e7366657220746f20746865207a65726f2061646460448201527f72657373000000000000000000000000000000000000000000000000000000006064820152608401610521565b6112cd838383611737565b6112d86000826110a4565b6001600160a01b03831660009081526003602052604081208054600192906113019084906125d6565b90915550506001600160a01b038216600090815260036020526040812080546001929061132f9084906125e9565b9091555050600081815260026020526040808220805473ffffffffffffffffffffffffffffffffffffffff19166001600160a01b0386811691821790925591518493918716917fddf252ad1be2c89b69c2b068fc378daa952ba7f163c4a11628f55a4df523b3ef91a4505050565b6060816000036113e057505060408051808201909152600181527f3000000000000000000000000000000000000000000000000000000000000000602082015290565b8160005b811561140a57806113f4816122cb565b91506114039050600a83612612565b91506113e4565b60008167ffffffffffffffff81111561142557611425611eed565b6040519080825280601f01601f19166020018201604052801561144f576020820181803683370190505b5090505b84156111b0576114646001836125d6565b9150611471600a86612626565b61147c9060306125e9565b60f81b8183815181106114915761149161229f565b60200101907effffffffffffffffffffffffffffffffffffffffffffffffffffffffffffff1916908160001a9053506114cb600a86612612565b9450611453565b816001600160a01b0316836001600160a01b0316036115335760405162461bcd60e51b815260206004820152601960248201527f4552433732313a20617070726f766520746f2063616c6c6572000000000000006044820152606401610521565b6001600160a01b03838116600081815260056020908152604080832094871680845294825291829020805460ff191686151590811790915591519182527f17307eab39ab6107e8899845ad3d59bd9653f200f220920489ca2b5937696c31910160405180910390a3505050565b6115ab8484846111b8565b6115b78484848461175c565b610ea15760405162461bcd60e51b815260206004820152603260248201527f4552433732313a207472616e7366657220746f206e6f6e20455243373231526560448201527131b2b4bb32b91034b6b83632b6b2b73a32b960711b6064820152608401610521565b60006001600160e01b031982167f80ac58cd00000000000000000000000000000000000000000000000000000000148061168157506001600160e01b031982167f5b5e139f00000000000000000000000000000000000000000000000000000000145b806103d257507f01ffc9a7000000000000000000000000000000000000000000000000000000006001600160e01b03198316146103d2565b6116c383836118a8565b6116d0600084848461175c565b6105c25760405162461bcd60e51b815260206004820152603260248201527f4552433732313a207472616e7366657220746f206e6f6e20455243373231526560448201527131b2b4bb32b91034b6b83632b6b2b73a32b960711b6064820152608401610521565b6000818152600d60205260409020611750600b826121be565b506105c2838383611a03565b60006001600160a01b0384163b1561189d57604051630a85bd0160e11b81526001600160a01b0385169063150b7a02906117a090339089908890889060040161263a565b6020604051808303816000875af19250505080156117db575060408051601f3d908101601f191682019092526117d891810190612676565b60015b611883573d808015611809576040519150601f19603f3d011682016040523d82523d6000602084013e61180e565b606091505b50805160000361187b5760405162461bcd60e51b815260206004820152603260248201527f4552433732313a207472616e7366657220746f206e6f6e20455243373231526560448201527131b2b4bb32b91034b6b83632b6b2b73a32b960711b6064820152608401610521565b805181602001fd5b6001600160e01b031916630a85bd0160e11b1490506111b0565b506001949350505050565b6001600160a01b0382166118fe5760405162461bcd60e51b815260206004820181905260248201527f4552433732313a206d696e7420746f20746865207a65726f20616464726573736044820152606401610521565b6000818152600260205260409020546001600160a01b0316156119635760405162461bcd60e51b815260206004820152601c60248201527f4552433732313a20746f6b656e20616c7265616479206d696e746564000000006044820152606401610521565b61196f60008383611737565b6001600160a01b03821660009081526003602052604081208054600192906119989084906125e9565b9091555050600081815260026020526040808220805473ffffffffffffffffffffffffffffffffffffffff19166001600160a01b03861690811790915590518392907fddf252ad1be2c89b69c2b068fc378daa952ba7f163c4a11628f55a4df523b3ef908290a45050565b6001600160a01b038316611a5e57611a5981600880546000838152600960205260408120829055600182018355919091527ff3f7a9fe364faab93b216da50a3214154f22a0a2b415b23a84c8169e8b636ee30155565b611a81565b816001600160a01b0316836001600160a01b031614611a8157611a818382611abb565b6001600160a01b038216611a98576105c281611b58565b826001600160a01b0316826001600160a01b0316146105c2576105c28282611c07565b60006001611ac88461091b565b611ad291906125d6565b600083815260076020526040902054909150808214611b25576001600160a01b03841660009081526006602090815260408083208584528252808320548484528184208190558352600790915290208190555b5060009182526007602090815260408084208490556001600160a01b039094168352600681528383209183525290812055565b600854600090611b6a906001906125d6565b60008381526009602052604081205460088054939450909284908110611b9257611b9261229f565b906000526020600020015490508060088381548110611bb357611bb361229f565b6000918252602080832090910192909255828152600990915260408082208490558582528120556008805480611beb57611beb612693565b6001900381819060005260206000200160009055905550505050565b6000611c128361091b565b6001600160a01b039093166000908152600660209081526040808320868452825280832085905593825260079052919091209190915550565b828054828255906000526020600020908101928215611c86579160200282015b82811115611c86578235825591602001919060010190611c6b565b50611c92929150611c96565b5090565b5b80821115611c925760008155600101611c97565b6001600160e01b03198116811461060657600080fd5b600060208284031215611cd357600080fd5b8135610fcb81611cab565b60005b83811015611cf9578181015183820152602001611ce1565b50506000910152565b60008151808452611d1a816020860160208601611cde565b601f01601f19169290920160200192915050565b602081526000610fcb6020830184611d02565b600060208284031215611d5357600080fd5b5035919050565b80356001600160a01b0381168114611d7157600080fd5b919050565b60008060408385031215611d8957600080fd5b611d9283611d5a565b946020939093013593505050565b600080600060608486031215611db557600080fd5b611dbe84611d5a565b9250611dcc60208501611d5a565b9150604084013590509250925092565b60008060408385031215611def57600080fd5b50508035926020909101359150565b600060208284031215611e1057600080fd5b610fcb82611d5a565b60008083601f840112611e2b57600080fd5b50813567ffffffffffffffff811115611e4357600080fd5b6020830191508360208260051b8501011115611e5e57600080fd5b9250929050565b600080600060408486031215611e7a57600080fd5b83359250602084013567ffffffffffffffff811115611e9857600080fd5b611ea486828701611e19565b9497909650939450505050565b60008060408385031215611ec457600080fd5b611ecd83611d5a565b915060208301358015158114611ee257600080fd5b809150509250929050565b634e487b7160e01b600052604160045260246000fd5b604051601f8201601f1916810167ffffffffffffffff81118282101715611f2c57611f2c611eed565b604052919050565b600067ffffffffffffffff821115611f4e57611f4e611eed565b5060051b60200190565b60008060408385031215611f6b57600080fd5b611f7483611d5a565b915060208084013567ffffffffffffffff811115611f9157600080fd5b8401601f81018613611fa257600080fd5b8035611fb5611fb082611f34565b611f03565b81815260059190911b82018301908381019088831115611fd457600080fd5b928401925b82841015611ff257833582529284019290840190611fd9565b80955050505050509250929050565b6000806000806080858703121561201757600080fd5b61202085611d5a565b9350602061202f818701611d5a565b935060408601359250606086013567ffffffffffffffff8082111561205357600080fd5b818801915088601f83011261206757600080fd5b81358181111561207957612079611eed565b61208b601f8201601f19168501611f03565b915080825289848285010111156120a157600080fd5b808484018584013760008482840101525080935050505092959194509250565b600080604083850312156120d457600080fd5b6120dd83611d5a565b91506120eb60208401611d5a565b90509250929050565b6000806020838503121561210757600080fd5b823567ffffffffffffffff81111561211e57600080fd5b61212a85828601611e19565b90969095509350505050565b600181811c9082168061214a57607f821691505b60208210810361216a57634e487b7160e01b600052602260045260246000fd5b50919050565b601f8211156105c257600081815260208120601f850160051c810160208610156121975750805b601f850160051c820191505b818110156121b6578281556001016121a3565b505050505050565b8181036121c9575050565b6121d38254612136565b67ffffffffffffffff8111156121eb576121eb611eed565b6121ff816121f98454612136565b84612170565b6000601f821160018114612233576000831561221b5750848201545b600019600385901b1c1916600184901b178455612298565b600085815260209020601f19841690600086815260209020845b8381101561226d578286015482556001958601959091019060200161224d565b508583101561228b5781850154600019600388901b60f8161c191681555b50505060018360011b0184555b5050505050565b634e487b7160e01b600052603260045260246000fd5b634e487b7160e01b600052601160045260246000fd5b6000600182016122dd576122dd6122b5565b5060010190565b604080825284519082018190526000906020906060840190828801845b828110156123265781516001600160a01b031684529284019290840190600101612301565b505050838103828501528481527f07ffffffffffffffffffffffffffffffffffffffffffffffffffffffffffffff85111561236057600080fd5b8460051b808784840137010195945050505050565b6000602080838503121561238857600080fd5b825167ffffffffffffffff81111561239f57600080fd5b8301601f810185136123b057600080fd5b80516123be611fb082611f34565b81815260059190911b820183019083810190878311156123dd57600080fd5b928401925b828410156123fb578351825292840192908401906123e2565b979650505050505050565b60008351612418818460208801611cde565b83519083019061242c818360208801611cde565b01949350505050565b60008251612447818460208701611cde565b7f5f00000000000000000000000000000000000000000000000000000000000000920191825250600101919050565b815167ffffffffffffffff81111561249057612490611eed565b61249e816121f98454612136565b602080601f8311600181146124d357600084156124bb5750858301515b600019600386901b1c1916600185901b1785556121b6565b600085815260208120601f198616915b82811015612502578886015182559484019460019091019084016124e3565b50858210156125205787850151600019600388901b60f8161c191681555b5050505050600190811b01905550565b60006020828403121561254257600080fd5b5051919050565b60008351602061255c8285838901611cde565b81840191506000855461256e81612136565b60018281168015612586576001811461259b576125c7565b60ff19841687528215158302870194506125c7565b896000528560002060005b848110156125bf578154898201529083019087016125a6565b505082870194505b50929998505050505050505050565b818103818111156103d2576103d26122b5565b808201808211156103d2576103d26122b5565b634e487b7160e01b600052601260045260246000fd5b600082612621576126216125fc565b500490565b600082612635576126356125fc565b500690565b60006001600160a01b0380871683528086166020840152508360408301526080606083015261266c6080830184611d02565b9695505050505050565b60006020828403121561268857600080fd5b8151610fcb81611cab565b634e487b7160e01b600052603160045260246000fdfea2646970667358221220096e7921b4d8078819f95f8fcbe6dffbce9ce8ce214a2e5d631bb7c7afb5f23a64736f6c63430008110033",
  "linkReferences": {},
  "deployedLinkReferences": {}
}