{
  "_format": "hh-sol-artifact-1",
  "contractName": "TraitsStaking",
  "sourceName": "contracts/Traits-staking.sol",
  "abi": [
    {
      "inputs": [],
      "stateMutability": "nonpayable",
      "type": "constructor"
    },
    {
      "anonymous": false,
      "inputs": [
        {
          "indexed": true,
          "internalType": "address",
          "name": "account",
          "type": "address"
        },
        {
          "indexed": true,
          "internalType": "address",
          "name": "operator",
          "type": "address"
        },
        {
          "indexed": false,
          "internalType": "bool",
          "name": "approved",
          "type": "bool"
        }
      ],
      "name": "ApprovalForAll",
      "type": "event"
    },
    {
      "anonymous": false,
      "inputs": [
        {
          "indexed": true,
          "internalType": "address",
          "name": "previousOwner",
          "type": "address"
        },
        {
          "indexed": true,
          "internalType": "address",
          "name": "newOwner",
          "type": "address"
        }
      ],
      "name": "OwnershipTransferred",
      "type": "event"
    },
    {
      "anonymous": false,
      "inputs": [
        {
          "indexed": true,
          "internalType": "address",
          "name": "operator",
          "type": "address"
        },
        {
          "indexed": true,
          "internalType": "address",
          "name": "from",
          "type": "address"
        },
        {
          "indexed": true,
          "internalType": "address",
          "name": "to",
          "type": "address"
        },
        {
          "indexed": false,
          "internalType": "uint256[]",
          "name": "ids",
          "type": "uint256[]"
        },
        {
          "indexed": false,
          "internalType": "uint256[]",
          "name": "values",
          "type": "uint256[]"
        }
      ],
      "name": "TransferBatch",
      "type": "event"
    },
    {
      "anonymous": false,
      "inputs": [
        {
          "indexed": true,
          "internalType": "address",
          "name": "operator",
          "type": "address"
        },
        {
          "indexed": true,
          "internalType": "address",
          "name": "from",
          "type": "address"
        },
        {
          "indexed": true,
          "internalType": "address",
          "name": "to",
          "type": "address"
        },
        {
          "indexed": false,
          "internalType": "uint256",
          "name": "id",
          "type": "uint256"
        },
        {
          "indexed": false,
          "internalType": "uint256",
          "name": "value",
          "type": "uint256"
        }
      ],
      "name": "TransferSingle",
      "type": "event"
    },
    {
      "anonymous": false,
      "inputs": [
        {
          "indexed": false,
          "internalType": "string",
          "name": "value",
          "type": "string"
        },
        {
          "indexed": true,
          "internalType": "uint256",
          "name": "id",
          "type": "uint256"
        }
      ],
      "name": "URI",
      "type": "event"
    },
    {
      "anonymous": false,
      "inputs": [
        {
          "indexed": false,
          "internalType": "address",
          "name": "sender",
          "type": "address"
        },
        {
          "indexed": false,
          "internalType": "uint256",
          "name": "tokenId",
          "type": "uint256"
        }
      ],
      "name": "traitStake",
      "type": "event"
    },
    {
      "anonymous": false,
      "inputs": [
        {
          "indexed": false,
          "internalType": "address",
          "name": "sender",
          "type": "address"
        },
        {
          "indexed": false,
          "internalType": "uint256",
          "name": "tokenId",
          "type": "uint256"
        }
      ],
      "name": "traitUnstake",
      "type": "event"
    },
    {
      "inputs": [
        {
          "internalType": "address",
          "name": "account",
          "type": "address"
        },
        {
          "internalType": "uint256",
          "name": "id",
          "type": "uint256"
        }
      ],
      "name": "balanceOf",
      "outputs": [
        {
          "internalType": "uint256",
          "name": "",
          "type": "uint256"
        }
      ],
      "stateMutability": "view",
      "type": "function"
    },
    {
      "inputs": [
        {
          "internalType": "address[]",
          "name": "accounts",
          "type": "address[]"
        },
        {
          "internalType": "uint256[]",
          "name": "ids",
          "type": "uint256[]"
        }
      ],
      "name": "balanceOfBatch",
      "outputs": [
        {
          "internalType": "uint256[]",
          "name": "",
          "type": "uint256[]"
        }
      ],
      "stateMutability": "view",
      "type": "function"
    },
    {
      "inputs": [
        {
          "internalType": "address",
          "name": "account",
          "type": "address"
        },
        {
          "internalType": "address",
          "name": "operator",
          "type": "address"
        }
      ],
      "name": "isApprovedForAll",
      "outputs": [
        {
          "internalType": "bool",
          "name": "",
          "type": "bool"
        }
      ],
      "stateMutability": "view",
      "type": "function"
    },
    {
      "inputs": [
        {
          "internalType": "uint256[]",
          "name": "ids",
          "type": "uint256[]"
        },
        {
          "internalType": "uint256[]",
          "name": "amounts",
          "type": "uint256[]"
        }
      ],
      "name": "mintBatch",
      "outputs": [],
      "stateMutability": "nonpayable",
      "type": "function"
    },
    {
      "inputs": [],
      "name": "name",
      "outputs": [
        {
          "internalType": "string",
          "name": "",
          "type": "string"
        }
      ],
      "stateMutability": "view",
      "type": "function"
    },
    {
      "inputs": [],
      "name": "owner",
      "outputs": [
        {
          "internalType": "address",
          "name": "",
          "type": "address"
        }
      ],
      "stateMutability": "view",
      "type": "function"
    },
    {
      "inputs": [],
      "name": "renounceOwnership",
      "outputs": [],
      "stateMutability": "nonpayable",
      "type": "function"
    },
    {
      "inputs": [
        {
          "internalType": "address",
          "name": "from",
          "type": "address"
        },
        {
          "internalType": "address",
          "name": "to",
          "type": "address"
        },
        {
          "internalType": "uint256[]",
          "name": "ids",
          "type": "uint256[]"
        },
        {
          "internalType": "uint256[]",
          "name": "amounts",
          "type": "uint256[]"
        },
        {
          "internalType": "bytes",
          "name": "data",
          "type": "bytes"
        }
      ],
      "name": "safeBatchTransferFrom",
      "outputs": [],
      "stateMutability": "nonpayable",
      "type": "function"
    },
    {
      "inputs": [
        {
          "internalType": "address",
          "name": "from",
          "type": "address"
        },
        {
          "internalType": "address",
          "name": "to",
          "type": "address"
        },
        {
          "internalType": "uint256",
          "name": "id",
          "type": "uint256"
        },
        {
          "internalType": "uint256",
          "name": "amount",
          "type": "uint256"
        },
        {
          "internalType": "bytes",
          "name": "data",
          "type": "bytes"
        }
      ],
      "name": "safeTransferFrom",
      "outputs": [],
      "stateMutability": "nonpayable",
      "type": "function"
    },
    {
      "inputs": [
        {
          "internalType": "address",
          "name": "operator",
          "type": "address"
        },
        {
          "internalType": "bool",
          "name": "approved",
          "type": "bool"
        }
      ],
      "name": "setApprovalForAll",
      "outputs": [],
      "stateMutability": "nonpayable",
      "type": "function"
    },
    {
      "inputs": [
        {
          "internalType": "string",
          "name": "newuri",
          "type": "string"
        }
      ],
      "name": "setURI",
      "outputs": [],
      "stateMutability": "nonpayable",
      "type": "function"
    },
    {
      "inputs": [
        {
          "internalType": "uint256",
          "name": "id",
          "type": "uint256"
        }
      ],
      "name": "stake",
      "outputs": [],
      "stateMutability": "nonpayable",
      "type": "function"
    },
    {
      "inputs": [
        {
          "internalType": "address",
          "name": "",
          "type": "address"
        },
        {
          "internalType": "uint256",
          "name": "",
          "type": "uint256"
        }
      ],
      "name": "staked",
      "outputs": [
        {
          "internalType": "bool",
          "name": "",
          "type": "bool"
        }
      ],
      "stateMutability": "view",
      "type": "function"
    },
    {
      "inputs": [
        {
          "internalType": "bytes4",
          "name": "interfaceId",
          "type": "bytes4"
        }
      ],
      "name": "supportsInterface",
      "outputs": [
        {
          "internalType": "bool",
          "name": "",
          "type": "bool"
        }
      ],
      "stateMutability": "view",
      "type": "function"
    },
    {
      "inputs": [],
      "name": "symbol",
      "outputs": [
        {
          "internalType": "string",
          "name": "",
          "type": "string"
        }
      ],
      "stateMutability": "view",
      "type": "function"
    },
    {
      "inputs": [
        {
          "internalType": "address",
          "name": "newOwner",
          "type": "address"
        }
      ],
      "name": "transferOwnership",
      "outputs": [],
      "stateMutability": "nonpayable",
      "type": "function"
    },
    {
      "inputs": [
        {
          "internalType": "uint256",
          "name": "id",
          "type": "uint256"
        }
      ],
      "name": "unstake",
      "outputs": [],
      "stateMutability": "nonpayable",
      "type": "function"
    },
    {
      "inputs": [
        {
          "internalType": "uint256",
          "name": "",
          "type": "uint256"
        }
      ],
      "name": "uri",
      "outputs": [
        {
          "internalType": "string",
          "name": "",
          "type": "string"
        }
      ],
      "stateMutability": "view",
      "type": "function"
    }
  ],
  "bytecode": "0x60c060405260056080908152644974656d7360d81b60a05260049062000026908262000194565b5060408051808201909152600381526249544d60e81b602082015260059062000050908262000194565b503480156200005e57600080fd5b5060408051602081019091526000815262000079816200008b565b5062000085336200009d565b62000260565b600262000099828262000194565b5050565b600380546001600160a01b038381166001600160a01b0319831681179093556040519116919082907f8be0079c531659141344cd1fd0a4f28419497f9722a3daafe3b4186f6b6457e090600090a35050565b634e487b7160e01b600052604160045260246000fd5b600181811c908216806200011a57607f821691505b6020821081036200013b57634e487b7160e01b600052602260045260246000fd5b50919050565b601f8211156200018f57600081815260208120601f850160051c810160208610156200016a5750805b601f850160051c820191505b818110156200018b5782815560010162000176565b5050505b505050565b81516001600160401b03811115620001b057620001b0620000ef565b620001c881620001c1845462000105565b8462000141565b602080601f831160018114620002005760008415620001e75750858301515b600019600386901b1c1916600185901b1785556200018b565b600085815260208120601f198616915b82811015620002315788860151825594840194600190910190840162000210565b5085821015620002505787850151600019600388901b60f8161c191681555b5050505050600190811b01905550565b611e0880620002706000396000f3fe608060405234801561001057600080fd5b50600436106101355760003560e01c80638da5cb5b116100b2578063a694fc3a11610081578063e985e9c511610066578063e985e9c514610298578063f242432a146102d4578063f2fde38b146102e757600080fd5b8063a694fc3a14610272578063d351cfdc1461028557600080fd5b80638da5cb5b1461020e5780638f1698161461022957806395d89b4114610257578063a22cb4651461025f57600080fd5b80630e89341c116101095780632eb2c2d6116100ee5780632eb2c2d6146101d35780634e1273f4146101e6578063715018a61461020657600080fd5b80630e89341c146101ad5780632e17de78146101c057600080fd5b8062fdd58e1461013a57806301ffc9a71461016057806302fe53051461018357806306fdde0314610198575b600080fd5b61014d610148366004611527565b6102fa565b6040519081526020015b60405180910390f35b61017361016e366004611567565b6103a6565b6040519015158152602001610157565b61019661019136600461162c565b610441565b005b6101a0610455565b60405161015791906116c3565b6101a06101bb3660046116d6565b6104e3565b6101966101ce3660046116d6565b610577565b6101966101e13660046117a4565b6105d3565b6101f96101f436600461184e565b610675565b6040516101579190611954565b6101966107b3565b6003546040516001600160a01b039091168152602001610157565b610173610237366004611527565b600660209081526000928352604080842090915290825290205460ff1681565b6101a06107c7565b61019661026d366004611967565b6107d4565b6101966102803660046116d6565b6107e3565b6101966102933660046119a3565b61083b565b6101736102a63660046119f0565b6001600160a01b03918216600090815260016020908152604080832093909416825291909152205460ff1690565b6101966102e2366004611a23565b610856565b6101966102f5366004611a88565b6108f1565b60006001600160a01b03831661037d5760405162461bcd60e51b815260206004820152602a60248201527f455243313135353a2061646472657373207a65726f206973206e6f742061207660448201527f616c6964206f776e65720000000000000000000000000000000000000000000060648201526084015b60405180910390fd5b506000818152602081815260408083206001600160a01b03861684529091529020545b92915050565b60006001600160e01b031982167fd9b67a2600000000000000000000000000000000000000000000000000000000148061040957506001600160e01b031982167f0e89341c00000000000000000000000000000000000000000000000000000000145b806103a057507f01ffc9a7000000000000000000000000000000000000000000000000000000006001600160e01b03198316146103a0565b61044961097e565b610452816109d8565b50565b6004805461046290611aa3565b80601f016020809104026020016040519081016040528092919081815260200182805461048e90611aa3565b80156104db5780601f106104b0576101008083540402835291602001916104db565b820191906000526020600020905b8154815290600101906020018083116104be57829003601f168201915b505050505081565b6060600280546104f290611aa3565b80601f016020809104026020016040519081016040528092919081815260200182805461051e90611aa3565b801561056b5780601f106105405761010080835404028352916020019161056b565b820191906000526020600020905b81548152906001019060200180831161054e57829003601f168201915b50505050509050919050565b336000818152600660209081526040808320858452825291829020805460ff19169055815192835282018390527f24f238242cc4ec5c72b423644920bbd84a39fdfb15d93e1b69c759d031e86f6991015b60405180910390a150565b6001600160a01b0385163314806105ef57506105ef85336102a6565b6106615760405162461bcd60e51b815260206004820152602f60248201527f455243313135353a2063616c6c6572206973206e6f7420746f6b656e206f776e60448201527f6572206e6f7220617070726f76656400000000000000000000000000000000006064820152608401610374565b61066e85858585856109e4565b5050505050565b606081518351146106ee5760405162461bcd60e51b815260206004820152602960248201527f455243313135353a206163636f756e747320616e6420696473206c656e67746860448201527f206d69736d6174636800000000000000000000000000000000000000000000006064820152608401610374565b6000835167ffffffffffffffff81111561070a5761070a61158b565b604051908082528060200260200182016040528015610733578160200160208202803683370190505b50905060005b84518110156107ab5761077e85828151811061075757610757611add565b602002602001015185838151811061077157610771611add565b60200260200101516102fa565b82828151811061079057610790611add565b60209081029190910101526107a481611b09565b9050610739565b509392505050565b6107bb61097e565b6107c56000610c50565b565b6005805461046290611aa3565b6107df338383610cba565b5050565b336000818152600660209081526040808320858452825291829020805460ff19166001179055815192835282018390527f3ad49d295180452553ac9797732da03884378736b2bbd79d5d35f893081634f391016105c8565b6107df33838360405180602001604052806000815250610dae565b6001600160a01b038516331480610872575061087285336102a6565b6108e45760405162461bcd60e51b815260206004820152602f60248201527f455243313135353a2063616c6c6572206973206e6f7420746f6b656e206f776e60448201527f6572206e6f7220617070726f76656400000000000000000000000000000000006064820152608401610374565b61066e8585858585610f9f565b6108f961097e565b6001600160a01b0381166109755760405162461bcd60e51b815260206004820152602660248201527f4f776e61626c653a206e6577206f776e657220697320746865207a65726f206160448201527f64647265737300000000000000000000000000000000000000000000000000006064820152608401610374565b61045281610c50565b6003546001600160a01b031633146107c55760405162461bcd60e51b815260206004820181905260248201527f4f776e61626c653a2063616c6c6572206973206e6f7420746865206f776e65726044820152606401610374565b60026107df8282611b6d565b8151835114610a465760405162461bcd60e51b815260206004820152602860248201527f455243313135353a2069647320616e6420616d6f756e7473206c656e677468206044820152670dad2e6dac2e8c6d60c31b6064820152608401610374565b6001600160a01b038416610aaa5760405162461bcd60e51b815260206004820152602560248201527f455243313135353a207472616e7366657220746f20746865207a65726f206164604482015264647265737360d81b6064820152608401610374565b33610ab9818787878787611158565b60005b8451811015610be2576000858281518110610ad957610ad9611add565b602002602001015190506000858381518110610af757610af7611add565b602090810291909101810151600084815280835260408082206001600160a01b038e168352909352919091205490915081811015610b8a5760405162461bcd60e51b815260206004820152602a60248201527f455243313135353a20696e73756666696369656e742062616c616e636520666f60448201526939103a3930b739b332b960b11b6064820152608401610374565b6000838152602081815260408083206001600160a01b038e8116855292528083208585039055908b16825281208054849290610bc7908490611c2d565b9250508190555050505080610bdb90611b09565b9050610abc565b50846001600160a01b0316866001600160a01b0316826001600160a01b03167f4a39dc06d4c0dbc64b70af90fd698a233a518aa5d07e595d983b8c0526c8f7fb8787604051610c32929190611c40565b60405180910390a4610c48818787878787611216565b505050505050565b600380546001600160a01b038381167fffffffffffffffffffffffff0000000000000000000000000000000000000000831681179093556040519116919082907f8be0079c531659141344cd1fd0a4f28419497f9722a3daafe3b4186f6b6457e090600090a35050565b816001600160a01b0316836001600160a01b031603610d415760405162461bcd60e51b815260206004820152602960248201527f455243313135353a2073657474696e6720617070726f76616c2073746174757360448201527f20666f722073656c6600000000000000000000000000000000000000000000006064820152608401610374565b6001600160a01b03838116600081815260016020908152604080832094871680845294825291829020805460ff191686151590811790915591519182527f17307eab39ab6107e8899845ad3d59bd9653f200f220920489ca2b5937696c31910160405180910390a3505050565b6001600160a01b038416610e2a5760405162461bcd60e51b815260206004820152602160248201527f455243313135353a206d696e7420746f20746865207a65726f2061646472657360448201527f73000000000000000000000000000000000000000000000000000000000000006064820152608401610374565b8151835114610e8c5760405162461bcd60e51b815260206004820152602860248201527f455243313135353a2069647320616e6420616d6f756e7473206c656e677468206044820152670dad2e6dac2e8c6d60c31b6064820152608401610374565b33610e9c81600087878787611158565b60005b8451811015610f3757838181518110610eba57610eba611add565b6020026020010151600080878481518110610ed757610ed7611add565b602002602001015181526020019081526020016000206000886001600160a01b03166001600160a01b031681526020019081526020016000206000828254610f1f9190611c2d565b90915550819050610f2f81611b09565b915050610e9f565b50846001600160a01b031660006001600160a01b0316826001600160a01b03167f4a39dc06d4c0dbc64b70af90fd698a233a518aa5d07e595d983b8c0526c8f7fb8787604051610f88929190611c40565b60405180910390a461066e81600087878787611216565b6001600160a01b0384166110035760405162461bcd60e51b815260206004820152602560248201527f455243313135353a207472616e7366657220746f20746865207a65726f206164604482015264647265737360d81b6064820152608401610374565b33600061100f856113c4565b9050600061101c856113c4565b905061102c838989858589611158565b6000868152602081815260408083206001600160a01b038c168452909152902054858110156110b05760405162461bcd60e51b815260206004820152602a60248201527f455243313135353a20696e73756666696369656e742062616c616e636520666f60448201526939103a3930b739b332b960b11b6064820152608401610374565b6000878152602081815260408083206001600160a01b038d8116855292528083208985039055908a168252812080548892906110ed908490611c2d565b909155505060408051888152602081018890526001600160a01b03808b16928c821692918816917fc3d58168c5ae7397731d063d5bbf3d657854427343f4c083240f7aacaa2d0f62910160405180910390a461114d848a8a8a8a8a61140f565b505050505050505050565b60005b8351811015611210576001600160a01b0386166000908152600660205260408120855190919086908490811061119357611193611add565b60209081029190910181015182528101919091526040016000205460ff16156111fe5760405162461bcd60e51b815260206004820152600f60248201527f546f6b656e206973205374616b656400000000000000000000000000000000006044820152606401610374565b8061120881611b09565b91505061115b565b50610c48565b6001600160a01b0384163b15610c485760405163bc197c8160e01b81526001600160a01b0385169063bc197c819061125a9089908990889088908890600401611c6e565b6020604051808303816000875af1925050508015611295575060408051601f3d908101601f1916820190925261129291810190611ccc565b60015b61134a576112a1611ce9565b806308c379a0036112da57506112b5611d05565b806112c057506112dc565b8060405162461bcd60e51b815260040161037491906116c3565b505b60405162461bcd60e51b815260206004820152603460248201527f455243313135353a207472616e7366657220746f206e6f6e204552433131353560448201527f526563656976657220696d706c656d656e7465720000000000000000000000006064820152608401610374565b6001600160e01b0319811663bc197c8160e01b146113bb5760405162461bcd60e51b815260206004820152602860248201527f455243313135353a204552433131353552656365697665722072656a656374656044820152676420746f6b656e7360c01b6064820152608401610374565b50505050505050565b604080516001808252818301909252606091600091906020808301908036833701905050905082816000815181106113fe576113fe611add565b602090810291909101015292915050565b6001600160a01b0384163b15610c485760405163f23a6e6160e01b81526001600160a01b0385169063f23a6e61906114539089908990889088908890600401611d8f565b6020604051808303816000875af192505050801561148e575060408051601f3d908101601f1916820190925261148b91810190611ccc565b60015b61149a576112a1611ce9565b6001600160e01b0319811663f23a6e6160e01b146113bb5760405162461bcd60e51b815260206004820152602860248201527f455243313135353a204552433131353552656365697665722072656a656374656044820152676420746f6b656e7360c01b6064820152608401610374565b80356001600160a01b038116811461152257600080fd5b919050565b6000806040838503121561153a57600080fd5b6115438361150b565b946020939093013593505050565b6001600160e01b03198116811461045257600080fd5b60006020828403121561157957600080fd5b813561158481611551565b9392505050565b634e487b7160e01b600052604160045260246000fd5b601f8201601f1916810167ffffffffffffffff811182821017156115c7576115c761158b565b6040525050565b600067ffffffffffffffff8311156115e8576115e861158b565b6040516115ff601f8501601f1916602001826115a1565b80915083815284848401111561161457600080fd5b83836020830137600060208583010152509392505050565b60006020828403121561163e57600080fd5b813567ffffffffffffffff81111561165557600080fd5b8201601f8101841361166657600080fd5b611675848235602084016115ce565b949350505050565b6000815180845260005b818110156116a357602081850181015186830182015201611687565b506000602082860101526020601f19601f83011685010191505092915050565b602081526000611584602083018461167d565b6000602082840312156116e857600080fd5b5035919050565b600067ffffffffffffffff8211156117095761170961158b565b5060051b60200190565b600082601f83011261172457600080fd5b81356020611731826116ef565b60405161173e82826115a1565b83815260059390931b850182019282810191508684111561175e57600080fd5b8286015b848110156117795780358352918301918301611762565b509695505050505050565b600082601f83011261179557600080fd5b611584838335602085016115ce565b600080600080600060a086880312156117bc57600080fd5b6117c58661150b565b94506117d36020870161150b565b9350604086013567ffffffffffffffff808211156117f057600080fd5b6117fc89838a01611713565b9450606088013591508082111561181257600080fd5b61181e89838a01611713565b9350608088013591508082111561183457600080fd5b5061184188828901611784565b9150509295509295909350565b6000806040838503121561186157600080fd5b823567ffffffffffffffff8082111561187957600080fd5b818501915085601f83011261188d57600080fd5b8135602061189a826116ef565b6040516118a782826115a1565b83815260059390931b85018201928281019150898411156118c757600080fd5b948201945b838610156118ec576118dd8661150b565b825294820194908201906118cc565b9650508601359250508082111561190257600080fd5b5061190f85828601611713565b9150509250929050565b600081518084526020808501945080840160005b838110156119495781518752958201959082019060010161192d565b509495945050505050565b6020815260006115846020830184611919565b6000806040838503121561197a57600080fd5b6119838361150b565b91506020830135801515811461199857600080fd5b809150509250929050565b600080604083850312156119b657600080fd5b823567ffffffffffffffff808211156119ce57600080fd5b6119da86838701611713565b9350602085013591508082111561190257600080fd5b60008060408385031215611a0357600080fd5b611a0c8361150b565b9150611a1a6020840161150b565b90509250929050565b600080600080600060a08688031215611a3b57600080fd5b611a448661150b565b9450611a526020870161150b565b93506040860135925060608601359150608086013567ffffffffffffffff811115611a7c57600080fd5b61184188828901611784565b600060208284031215611a9a57600080fd5b6115848261150b565b600181811c90821680611ab757607f821691505b602082108103611ad757634e487b7160e01b600052602260045260246000fd5b50919050565b634e487b7160e01b600052603260045260246000fd5b634e487b7160e01b600052601160045260246000fd5b600060018201611b1b57611b1b611af3565b5060010190565b601f821115611b6857600081815260208120601f850160051c81016020861015611b495750805b601f850160051c820191505b81811015610c4857828155600101611b55565b505050565b815167ffffffffffffffff811115611b8757611b8761158b565b611b9b81611b958454611aa3565b84611b22565b602080601f831160018114611bd05760008415611bb85750858301515b600019600386901b1c1916600185901b178555610c48565b600085815260208120601f198616915b82811015611bff57888601518255948401946001909101908401611be0565b5085821015611c1d5787850151600019600388901b60f8161c191681555b5050505050600190811b01905550565b808201808211156103a0576103a0611af3565b604081526000611c536040830185611919565b8281036020840152611c658185611919565b95945050505050565b60006001600160a01b03808816835280871660208401525060a06040830152611c9a60a0830186611919565b8281036060840152611cac8186611919565b90508281036080840152611cc0818561167d565b98975050505050505050565b600060208284031215611cde57600080fd5b815161158481611551565b600060033d1115611d025760046000803e5060005160e01c5b90565b600060443d1015611d135790565b6040516003193d81016004833e81513d67ffffffffffffffff8160248401118184111715611d4357505050505090565b8285019150815181811115611d5b5750505050505090565b843d8701016020828501011115611d755750505050505090565b611d84602082860101876115a1565b509095945050505050565b60006001600160a01b03808816835280871660208401525084604083015283606083015260a06080830152611dc760a083018461167d565b97965050505050505056fea264697066735822122040f5460a1396c2fe7d34d72375b657cb8777cf14cb9c515bd62f7d4200d9b75364736f6c63430008110033",
  "linkReferences": {},
  "deployedLinkReferences": {}
}