{
  "_format": "hh-sol-artifact-1",
  "contractName": "Traits",
  "sourceName": "contracts/Traits.sol",
  "abi": [
    {
      "inputs": [],
      "stateMutability": "nonpayable",
      "type": "constructor"
    },
    {
      "anonymous": false,
      "inputs": [
        {
          "indexed": true,
          "internalType": "address",
          "name": "account",
          "type": "address"
        },
        {
          "indexed": true,
          "internalType": "address",
          "name": "operator",
          "type": "address"
        },
        {
          "indexed": false,
          "internalType": "bool",
          "name": "approved",
          "type": "bool"
        }
      ],
      "name": "ApprovalForAll",
      "type": "event"
    },
    {
      "anonymous": false,
      "inputs": [
        {
          "indexed": true,
          "internalType": "address",
          "name": "previousOwner",
          "type": "address"
        },
        {
          "indexed": true,
          "internalType": "address",
          "name": "newOwner",
          "type": "address"
        }
      ],
      "name": "OwnershipTransferred",
      "type": "event"
    },
    {
      "anonymous": false,
      "inputs": [
        {
          "indexed": true,
          "internalType": "address",
          "name": "operator",
          "type": "address"
        },
        {
          "indexed": true,
          "internalType": "address",
          "name": "from",
          "type": "address"
        },
        {
          "indexed": true,
          "internalType": "address",
          "name": "to",
          "type": "address"
        },
        {
          "indexed": false,
          "internalType": "uint256[]",
          "name": "ids",
          "type": "uint256[]"
        },
        {
          "indexed": false,
          "internalType": "uint256[]",
          "name": "values",
          "type": "uint256[]"
        }
      ],
      "name": "TransferBatch",
      "type": "event"
    },
    {
      "anonymous": false,
      "inputs": [
        {
          "indexed": true,
          "internalType": "address",
          "name": "operator",
          "type": "address"
        },
        {
          "indexed": true,
          "internalType": "address",
          "name": "from",
          "type": "address"
        },
        {
          "indexed": true,
          "internalType": "address",
          "name": "to",
          "type": "address"
        },
        {
          "indexed": false,
          "internalType": "uint256",
          "name": "id",
          "type": "uint256"
        },
        {
          "indexed": false,
          "internalType": "uint256",
          "name": "value",
          "type": "uint256"
        }
      ],
      "name": "TransferSingle",
      "type": "event"
    },
    {
      "anonymous": false,
      "inputs": [
        {
          "indexed": false,
          "internalType": "string",
          "name": "value",
          "type": "string"
        },
        {
          "indexed": true,
          "internalType": "uint256",
          "name": "id",
          "type": "uint256"
        }
      ],
      "name": "URI",
      "type": "event"
    },
    {
      "inputs": [
        {
          "internalType": "address",
          "name": "account",
          "type": "address"
        },
        {
          "internalType": "uint256",
          "name": "id",
          "type": "uint256"
        }
      ],
      "name": "balanceOf",
      "outputs": [
        {
          "internalType": "uint256",
          "name": "",
          "type": "uint256"
        }
      ],
      "stateMutability": "view",
      "type": "function"
    },
    {
      "inputs": [
        {
          "internalType": "address[]",
          "name": "accounts",
          "type": "address[]"
        },
        {
          "internalType": "uint256[]",
          "name": "ids",
          "type": "uint256[]"
        }
      ],
      "name": "balanceOfBatch",
      "outputs": [
        {
          "internalType": "uint256[]",
          "name": "",
          "type": "uint256[]"
        }
      ],
      "stateMutability": "view",
      "type": "function"
    },
    {
      "inputs": [
        {
          "internalType": "address",
          "name": "",
          "type": "address"
        },
        {
          "internalType": "address",
          "name": "",
          "type": "address"
        }
      ],
      "name": "equippedAddress",
      "outputs": [
        {
          "internalType": "bool",
          "name": "",
          "type": "bool"
        }
      ],
      "stateMutability": "view",
      "type": "function"
    },
    {
      "inputs": [
        {
          "internalType": "address",
          "name": "",
          "type": "address"
        },
        {
          "internalType": "uint256",
          "name": "",
          "type": "uint256"
        }
      ],
      "name": "equippedAddressList",
      "outputs": [
        {
          "internalType": "address",
          "name": "",
          "type": "address"
        }
      ],
      "stateMutability": "view",
      "type": "function"
    },
    {
      "inputs": [
        {
          "internalType": "address",
          "name": "account",
          "type": "address"
        },
        {
          "internalType": "address",
          "name": "operator",
          "type": "address"
        }
      ],
      "name": "isApprovedForAll",
      "outputs": [
        {
          "internalType": "bool",
          "name": "",
          "type": "bool"
        }
      ],
      "stateMutability": "view",
      "type": "function"
    },
    {
      "inputs": [
        {
          "internalType": "uint256[]",
          "name": "ids",
          "type": "uint256[]"
        },
        {
          "internalType": "uint256[]",
          "name": "amounts",
          "type": "uint256[]"
        }
      ],
      "name": "mintBatch",
      "outputs": [],
      "stateMutability": "nonpayable",
      "type": "function"
    },
    {
      "inputs": [],
      "name": "name",
      "outputs": [
        {
          "internalType": "string",
          "name": "",
          "type": "string"
        }
      ],
      "stateMutability": "view",
      "type": "function"
    },
    {
      "inputs": [],
      "name": "owner",
      "outputs": [
        {
          "internalType": "address",
          "name": "",
          "type": "address"
        }
      ],
      "stateMutability": "view",
      "type": "function"
    },
    {
      "inputs": [
        {
          "internalType": "address",
          "name": "contractAddress",
          "type": "address"
        },
        {
          "internalType": "address",
          "name": "user",
          "type": "address"
        }
      ],
      "name": "registerAddress",
      "outputs": [],
      "stateMutability": "nonpayable",
      "type": "function"
    },
    {
      "inputs": [],
      "name": "renounceOwnership",
      "outputs": [],
      "stateMutability": "nonpayable",
      "type": "function"
    },
    {
      "inputs": [
        {
          "internalType": "address",
          "name": "from",
          "type": "address"
        },
        {
          "internalType": "address",
          "name": "to",
          "type": "address"
        },
        {
          "internalType": "uint256[]",
          "name": "ids",
          "type": "uint256[]"
        },
        {
          "internalType": "uint256[]",
          "name": "amounts",
          "type": "uint256[]"
        },
        {
          "internalType": "bytes",
          "name": "data",
          "type": "bytes"
        }
      ],
      "name": "safeBatchTransferFrom",
      "outputs": [],
      "stateMutability": "nonpayable",
      "type": "function"
    },
    {
      "inputs": [
        {
          "internalType": "address",
          "name": "from",
          "type": "address"
        },
        {
          "internalType": "address",
          "name": "to",
          "type": "address"
        },
        {
          "internalType": "uint256",
          "name": "id",
          "type": "uint256"
        },
        {
          "internalType": "uint256",
          "name": "amount",
          "type": "uint256"
        },
        {
          "internalType": "bytes",
          "name": "data",
          "type": "bytes"
        }
      ],
      "name": "safeTransferFrom",
      "outputs": [],
      "stateMutability": "nonpayable",
      "type": "function"
    },
    {
      "inputs": [
        {
          "internalType": "address",
          "name": "operator",
          "type": "address"
        },
        {
          "internalType": "bool",
          "name": "approved",
          "type": "bool"
        }
      ],
      "name": "setApprovalForAll",
      "outputs": [],
      "stateMutability": "nonpayable",
      "type": "function"
    },
    {
      "inputs": [
        {
          "internalType": "string",
          "name": "newuri",
          "type": "string"
        }
      ],
      "name": "setURI",
      "outputs": [],
      "stateMutability": "nonpayable",
      "type": "function"
    },
    {
      "inputs": [
        {
          "internalType": "bytes4",
          "name": "interfaceId",
          "type": "bytes4"
        }
      ],
      "name": "supportsInterface",
      "outputs": [
        {
          "internalType": "bool",
          "name": "",
          "type": "bool"
        }
      ],
      "stateMutability": "view",
      "type": "function"
    },
    {
      "inputs": [],
      "name": "symbol",
      "outputs": [
        {
          "internalType": "string",
          "name": "",
          "type": "string"
        }
      ],
      "stateMutability": "view",
      "type": "function"
    },
    {
      "inputs": [
        {
          "internalType": "address",
          "name": "newOwner",
          "type": "address"
        }
      ],
      "name": "transferOwnership",
      "outputs": [],
      "stateMutability": "nonpayable",
      "type": "function"
    },
    {
      "inputs": [
        {
          "internalType": "uint256",
          "name": "",
          "type": "uint256"
        }
      ],
      "name": "uri",
      "outputs": [
        {
          "internalType": "string",
          "name": "",
          "type": "string"
        }
      ],
      "stateMutability": "view",
      "type": "function"
    }
  ],
  "bytecode": "0x60c060405260056080908152644974656d7360d81b60a05260049062000026908262000194565b5060408051808201909152600381526249544d60e81b602082015260059062000050908262000194565b503480156200005e57600080fd5b5060408051602081019091526000815262000079816200008b565b5062000085336200009d565b62000260565b600262000099828262000194565b5050565b600380546001600160a01b038381166001600160a01b0319831681179093556040519116919082907f8be0079c531659141344cd1fd0a4f28419497f9722a3daafe3b4186f6b6457e090600090a35050565b634e487b7160e01b600052604160045260246000fd5b600181811c908216806200011a57607f821691505b6020821081036200013b57634e487b7160e01b600052602260045260246000fd5b50919050565b601f8211156200018f57600081815260208120601f850160051c810160208610156200016a5750805b601f850160051c820191505b818110156200018b5782815560010162000176565b5050505b505050565b81516001600160401b03811115620001b057620001b0620000ef565b620001c881620001c1845462000105565b8462000141565b602080601f831160018114620002005760008415620001e75750858301515b600019600386901b1c1916600185901b1785556200018b565b600085815260208120601f198616915b82811015620002315788860151825594840194600190910190840162000210565b5085821015620002505787850151600019600388901b60f8161c191681555b5050505050600190811b01905550565b611e8b80620002706000396000f3fe608060405234801561001057600080fd5b50600436106101355760003560e01c80638132a02a116100b2578063d351cfdc11610081578063f242432a11610066578063f242432a146102b4578063f2fde38b146102c7578063f9e06491146102da57600080fd5b8063d351cfdc14610265578063e985e9c51461027857600080fd5b80638132a02a1461020e5780638da5cb5b1461023957806395d89b411461024a578063a22cb4651461025257600080fd5b80630e89341c1161010957806331b0795c116100ee57806331b0795c146101d35780634e1273f4146101e6578063715018a61461020657600080fd5b80630e89341c146101ad5780632eb2c2d6146101c057600080fd5b8062fdd58e1461013a57806301ffc9a71461016057806302fe53051461018357806306fdde0314610198575b600080fd5b61014d610148366004611588565b610308565b6040519081526020015b60405180910390f35b61017361016e3660046115c8565b6103b4565b6040519015158152602001610157565b61019661019136600461168d565b61044f565b005b6101a0610463565b6040516101579190611724565b6101a06101bb366004611737565b6104f1565b6101966101ce366004611805565b610585565b6101966101e13660046118af565b610627565b6101f96101f43660046118e2565b6106c7565b60405161015791906119e8565b610196610805565b61022161021c366004611588565b610819565b6040516001600160a01b039091168152602001610157565b6003546001600160a01b0316610221565b6101a0610851565b6101966102603660046119fb565b61085e565b610196610273366004611a37565b610869565b6101736102863660046118af565b6001600160a01b03918216600090815260016020908152604080832093909416825291909152205460ff1690565b6101966102c2366004611a84565b610884565b6101966102d5366004611ae9565b61091f565b6101736102e83660046118af565b600660209081526000928352604080842090915290825290205460ff1681565b60006001600160a01b03831661038b5760405162461bcd60e51b815260206004820152602a60248201527f455243313135353a2061646472657373207a65726f206973206e6f742061207660448201527f616c6964206f776e65720000000000000000000000000000000000000000000060648201526084015b60405180910390fd5b506000818152602081815260408083206001600160a01b03861684529091529020545b92915050565b60006001600160e01b031982167fd9b67a2600000000000000000000000000000000000000000000000000000000148061041757506001600160e01b031982167f0e89341c00000000000000000000000000000000000000000000000000000000145b806103ae57507f01ffc9a7000000000000000000000000000000000000000000000000000000006001600160e01b03198316146103ae565b6104576109ac565b61046081610a06565b50565b6004805461047090611b04565b80601f016020809104026020016040519081016040528092919081815260200182805461049c90611b04565b80156104e95780601f106104be576101008083540402835291602001916104e9565b820191906000526020600020905b8154815290600101906020018083116104cc57829003601f168201915b505050505081565b60606002805461050090611b04565b80601f016020809104026020016040519081016040528092919081815260200182805461052c90611b04565b80156105795780601f1061054e57610100808354040283529160200191610579565b820191906000526020600020905b81548152906001019060200180831161055c57829003601f168201915b50505050509050919050565b6001600160a01b0385163314806105a157506105a18533610286565b6106135760405162461bcd60e51b815260206004820152602f60248201527f455243313135353a2063616c6c6572206973206e6f7420746f6b656e206f776e60448201527f6572206e6f7220617070726f76656400000000000000000000000000000000006064820152608401610382565b6106208585858585610a12565b5050505050565b6001600160a01b0380821660009081526006602090815260408083209386168352929052205460ff1615156001146106c3576001600160a01b038082166000818152600660209081526040808320948716808452948252808320805460ff19166001908117909155938352600782528220805493840181558252902001805473ffffffffffffffffffffffffffffffffffffffff191690911790555b5050565b606081518351146107405760405162461bcd60e51b815260206004820152602960248201527f455243313135353a206163636f756e747320616e6420696473206c656e67746860448201527f206d69736d6174636800000000000000000000000000000000000000000000006064820152608401610382565b6000835167ffffffffffffffff81111561075c5761075c6115ec565b604051908082528060200260200182016040528015610785578160200160208202803683370190505b50905060005b84518110156107fd576107d08582815181106107a9576107a9611b3e565b60200260200101518583815181106107c3576107c3611b3e565b6020026020010151610308565b8282815181106107e2576107e2611b3e565b60209081029190910101526107f681611b6a565b905061078b565b509392505050565b61080d6109ac565b6108176000610c7e565b565b6007602052816000526040600020818154811061083557600080fd5b6000918252602090912001546001600160a01b03169150829050565b6005805461047090611b04565b6106c3338383610cdd565b6106c333838360405180602001604052806000815250610dd1565b6001600160a01b0385163314806108a057506108a08533610286565b6109125760405162461bcd60e51b815260206004820152602f60248201527f455243313135353a2063616c6c6572206973206e6f7420746f6b656e206f776e60448201527f6572206e6f7220617070726f76656400000000000000000000000000000000006064820152608401610382565b6106208585858585610fc2565b6109276109ac565b6001600160a01b0381166109a35760405162461bcd60e51b815260206004820152602660248201527f4f776e61626c653a206e6577206f776e657220697320746865207a65726f206160448201527f64647265737300000000000000000000000000000000000000000000000000006064820152608401610382565b61046081610c7e565b6003546001600160a01b031633146108175760405162461bcd60e51b815260206004820181905260248201527f4f776e61626c653a2063616c6c6572206973206e6f7420746865206f776e65726044820152606401610382565b60026106c38282611bce565b8151835114610a745760405162461bcd60e51b815260206004820152602860248201527f455243313135353a2069647320616e6420616d6f756e7473206c656e677468206044820152670dad2e6dac2e8c6d60c31b6064820152608401610382565b6001600160a01b038416610ad85760405162461bcd60e51b815260206004820152602560248201527f455243313135353a207472616e7366657220746f20746865207a65726f206164604482015264647265737360d81b6064820152608401610382565b33610ae781878787878761117b565b60005b8451811015610c10576000858281518110610b0757610b07611b3e565b602002602001015190506000858381518110610b2557610b25611b3e565b602090810291909101810151600084815280835260408082206001600160a01b038e168352909352919091205490915081811015610bb85760405162461bcd60e51b815260206004820152602a60248201527f455243313135353a20696e73756666696369656e742062616c616e636520666f60448201526939103a3930b739b332b960b11b6064820152608401610382565b6000838152602081815260408083206001600160a01b038e8116855292528083208585039055908b16825281208054849290610bf5908490611c8e565b9250508190555050505080610c0990611b6a565b9050610aea565b50846001600160a01b0316866001600160a01b0316826001600160a01b03167f4a39dc06d4c0dbc64b70af90fd698a233a518aa5d07e595d983b8c0526c8f7fb8787604051610c60929190611ca1565b60405180910390a4610c76818787878787611277565b505050505050565b600380546001600160a01b0383811673ffffffffffffffffffffffffffffffffffffffff19831681179093556040519116919082907f8be0079c531659141344cd1fd0a4f28419497f9722a3daafe3b4186f6b6457e090600090a35050565b816001600160a01b0316836001600160a01b031603610d645760405162461bcd60e51b815260206004820152602960248201527f455243313135353a2073657474696e6720617070726f76616c2073746174757360448201527f20666f722073656c6600000000000000000000000000000000000000000000006064820152608401610382565b6001600160a01b03838116600081815260016020908152604080832094871680845294825291829020805460ff191686151590811790915591519182527f17307eab39ab6107e8899845ad3d59bd9653f200f220920489ca2b5937696c31910160405180910390a3505050565b6001600160a01b038416610e4d5760405162461bcd60e51b815260206004820152602160248201527f455243313135353a206d696e7420746f20746865207a65726f2061646472657360448201527f73000000000000000000000000000000000000000000000000000000000000006064820152608401610382565b8151835114610eaf5760405162461bcd60e51b815260206004820152602860248201527f455243313135353a2069647320616e6420616d6f756e7473206c656e677468206044820152670dad2e6dac2e8c6d60c31b6064820152608401610382565b33610ebf8160008787878761117b565b60005b8451811015610f5a57838181518110610edd57610edd611b3e565b6020026020010151600080878481518110610efa57610efa611b3e565b602002602001015181526020019081526020016000206000886001600160a01b03166001600160a01b031681526020019081526020016000206000828254610f429190611c8e565b90915550819050610f5281611b6a565b915050610ec2565b50846001600160a01b031660006001600160a01b0316826001600160a01b03167f4a39dc06d4c0dbc64b70af90fd698a233a518aa5d07e595d983b8c0526c8f7fb8787604051610fab929190611ca1565b60405180910390a461062081600087878787611277565b6001600160a01b0384166110265760405162461bcd60e51b815260206004820152602560248201527f455243313135353a207472616e7366657220746f20746865207a65726f206164604482015264647265737360d81b6064820152608401610382565b33600061103285611425565b9050600061103f85611425565b905061104f83898985858961117b565b6000868152602081815260408083206001600160a01b038c168452909152902054858110156110d35760405162461bcd60e51b815260206004820152602a60248201527f455243313135353a20696e73756666696369656e742062616c616e636520666f60448201526939103a3930b739b332b960b11b6064820152608401610382565b6000878152602081815260408083206001600160a01b038d8116855292528083208985039055908a16825281208054889290611110908490611c8e565b909155505060408051888152602081018890526001600160a01b03808b16928c821692918816917fc3d58168c5ae7397731d063d5bbf3d657854427343f4c083240f7aacaa2d0f62910160405180910390a4611170848a8a8a8a8a611470565b505050505050505050565b6001600160a01b038516156112725760005b6001600160a01b038616600090815260076020526040902054811015611270576001600160a01b03861660009081526007602052604090208054829081106111d7576111d7611b3e565b6000918252602090912001546040517fa5ee45830000000000000000000000000000000000000000000000000000000081526001600160a01b039091169063a5ee45839061122b9089908890600401611ccf565b600060405180830381600087803b15801561124557600080fd5b505af1158015611259573d6000803e3d6000fd5b50505050808061126890611b6a565b91505061118d565b505b610c76565b6001600160a01b0384163b15610c765760405163bc197c8160e01b81526001600160a01b0385169063bc197c81906112bb9089908990889088908890600401611cf1565b6020604051808303816000875af19250505080156112f6575060408051601f3d908101601f191682019092526112f391810190611d4f565b60015b6113ab57611302611d6c565b806308c379a00361133b5750611316611d88565b80611321575061133d565b8060405162461bcd60e51b81526004016103829190611724565b505b60405162461bcd60e51b815260206004820152603460248201527f455243313135353a207472616e7366657220746f206e6f6e204552433131353560448201527f526563656976657220696d706c656d656e7465720000000000000000000000006064820152608401610382565b6001600160e01b0319811663bc197c8160e01b1461141c5760405162461bcd60e51b815260206004820152602860248201527f455243313135353a204552433131353552656365697665722072656a656374656044820152676420746f6b656e7360c01b6064820152608401610382565b50505050505050565b6040805160018082528183019092526060916000919060208083019080368337019050509050828160008151811061145f5761145f611b3e565b602090810291909101015292915050565b6001600160a01b0384163b15610c765760405163f23a6e6160e01b81526001600160a01b0385169063f23a6e61906114b49089908990889088908890600401611e12565b6020604051808303816000875af19250505080156114ef575060408051601f3d908101601f191682019092526114ec91810190611d4f565b60015b6114fb57611302611d6c565b6001600160e01b0319811663f23a6e6160e01b1461141c5760405162461bcd60e51b815260206004820152602860248201527f455243313135353a204552433131353552656365697665722072656a656374656044820152676420746f6b656e7360c01b6064820152608401610382565b80356001600160a01b038116811461158357600080fd5b919050565b6000806040838503121561159b57600080fd5b6115a48361156c565b946020939093013593505050565b6001600160e01b03198116811461046057600080fd5b6000602082840312156115da57600080fd5b81356115e5816115b2565b9392505050565b634e487b7160e01b600052604160045260246000fd5b601f8201601f1916810167ffffffffffffffff81118282101715611628576116286115ec565b6040525050565b600067ffffffffffffffff831115611649576116496115ec565b604051611660601f8501601f191660200182611602565b80915083815284848401111561167557600080fd5b83836020830137600060208583010152509392505050565b60006020828403121561169f57600080fd5b813567ffffffffffffffff8111156116b657600080fd5b8201601f810184136116c757600080fd5b6116d68482356020840161162f565b949350505050565b6000815180845260005b81811015611704576020818501810151868301820152016116e8565b506000602082860101526020601f19601f83011685010191505092915050565b6020815260006115e560208301846116de565b60006020828403121561174957600080fd5b5035919050565b600067ffffffffffffffff82111561176a5761176a6115ec565b5060051b60200190565b600082601f83011261178557600080fd5b8135602061179282611750565b60405161179f8282611602565b83815260059390931b85018201928281019150868411156117bf57600080fd5b8286015b848110156117da57803583529183019183016117c3565b509695505050505050565b600082601f8301126117f657600080fd5b6115e58383356020850161162f565b600080600080600060a0868803121561181d57600080fd5b6118268661156c565b94506118346020870161156c565b9350604086013567ffffffffffffffff8082111561185157600080fd5b61185d89838a01611774565b9450606088013591508082111561187357600080fd5b61187f89838a01611774565b9350608088013591508082111561189557600080fd5b506118a2888289016117e5565b9150509295509295909350565b600080604083850312156118c257600080fd5b6118cb8361156c565b91506118d96020840161156c565b90509250929050565b600080604083850312156118f557600080fd5b823567ffffffffffffffff8082111561190d57600080fd5b818501915085601f83011261192157600080fd5b8135602061192e82611750565b60405161193b8282611602565b83815260059390931b850182019282810191508984111561195b57600080fd5b948201945b83861015611980576119718661156c565b82529482019490820190611960565b9650508601359250508082111561199657600080fd5b506119a385828601611774565b9150509250929050565b600081518084526020808501945080840160005b838110156119dd578151875295820195908201906001016119c1565b509495945050505050565b6020815260006115e560208301846119ad565b60008060408385031215611a0e57600080fd5b611a178361156c565b915060208301358015158114611a2c57600080fd5b809150509250929050565b60008060408385031215611a4a57600080fd5b823567ffffffffffffffff80821115611a6257600080fd5b611a6e86838701611774565b9350602085013591508082111561199657600080fd5b600080600080600060a08688031215611a9c57600080fd5b611aa58661156c565b9450611ab36020870161156c565b93506040860135925060608601359150608086013567ffffffffffffffff811115611add57600080fd5b6118a2888289016117e5565b600060208284031215611afb57600080fd5b6115e58261156c565b600181811c90821680611b1857607f821691505b602082108103611b3857634e487b7160e01b600052602260045260246000fd5b50919050565b634e487b7160e01b600052603260045260246000fd5b634e487b7160e01b600052601160045260246000fd5b600060018201611b7c57611b7c611b54565b5060010190565b601f821115611bc957600081815260208120601f850160051c81016020861015611baa5750805b601f850160051c820191505b81811015610c7657828155600101611bb6565b505050565b815167ffffffffffffffff811115611be857611be86115ec565b611bfc81611bf68454611b04565b84611b83565b602080601f831160018114611c315760008415611c195750858301515b600019600386901b1c1916600185901b178555610c76565b600085815260208120601f198616915b82811015611c6057888601518255948401946001909101908401611c41565b5085821015611c7e5787850151600019600388901b60f8161c191681555b5050505050600190811b01905550565b808201808211156103ae576103ae611b54565b604081526000611cb460408301856119ad565b8281036020840152611cc681856119ad565b95945050505050565b6001600160a01b03831681526040602082015260006116d660408301846119ad565b60006001600160a01b03808816835280871660208401525060a06040830152611d1d60a08301866119ad565b8281036060840152611d2f81866119ad565b90508281036080840152611d4381856116de565b98975050505050505050565b600060208284031215611d6157600080fd5b81516115e5816115b2565b600060033d1115611d855760046000803e5060005160e01c5b90565b600060443d1015611d965790565b6040516003193d81016004833e81513d67ffffffffffffffff8160248401118184111715611dc657505050505090565b8285019150815181811115611dde5750505050505090565b843d8701016020828501011115611df85750505050505090565b611e0760208286010187611602565b509095945050505050565b60006001600160a01b03808816835280871660208401525084604083015283606083015260a06080830152611e4a60a08301846116de565b97965050505050505056fea2646970667358221220433f5de16328d0e0c75d3f610458b953ca902e54dbb3cb919ba817d3815b529e64736f6c63430008110033",
  "linkReferences": {},
  "deployedLinkReferences": {}
}